:1000000000000220AD010000D9010000D90100006C
:10001000D9010000D9010000D9010000D901000078
:10002000D9010000D9010000D9010000D901000068
:10003000D9010000D9010000D9010000C91D00004C
:10004000D9010000D9010000D9010000D901000048
:10005000D9010000D9010000D9010000D901000038
:10006000D9010000D9010000D9010000D901000028
:10007000D9010000D9010000D9010000D901000018
:10008000D9010000D9010000D9010000D901000008
:1000900061270000D9010000D9010000D90100004A
:1000A000D9010000D9010000D9010000D9010000E8
:1000B000D9010000D9010000D9010000D9010000D8
:1000C000D9010000D9010000D9010000D9010000C8
:1000D000D9010000D9010000D901000010B5054C7C
:1000E000237833B9044B13B10448AFF300800123E4
:1000F000237010BD8000002000000000B433000019
:10010000084B10B51BB108480849AFF300800848F8
:10011000036803B910BD074B002BFBD0BDE81040AE
:10012000184700BF00000000B43300008400002026
:100130007C00002000000000154B002B08BF134B73
:100140009D46A3F5803A00218B460F461348144A7A
:10015000121A02F097FF0F4B002B00D098470E4B5E
:10016000002B00D098470020002104000D000D480E
:10017000002802D00C48AFF3008002F05DFF2000A1
:10018000290002F03BF802F043FF00BF0000080026
:10019000000002200000000000000000800000209D
:1001A000140B0020000000000000000006488047FB
:1001B0000649074A074B9A42BEBF51F8040B42F862
:1001C000040BF8E7FFF7B8FF85030000E8330000F1
:1001D0000000002080000020FEE700BF80B400AFD8
:1001E000044BDB6C1B0EDBB21846BD465DF8047B8E
:1001F000704700BFB081E00F80B582B000AF00F063
:100200001FF87860074B5B6803F00F031A467B68A2
:10021000D3407B60044A7B6813607B6818460837CC
:10022000BD4680BD00800C400800002080B400AFB7
:10023000024B1846BD465DF8047B7047006CDC023B
:1002400080B582B000AF334BDB6A03F47053B3F573
:10025000805F0AD0B3F5005F03D0B3F5006F08D01C
:100260000BE02D4B1B687B6047E04FF400437B6045
:1002700043E02A4B1B687B603FE0264BDB6803F4BE
:10028000E063B3F5007F1BD0B3F5007F05D8002BEA
:1002900024D0B3F5807F16D02BE0B3F5806F09D062
:1002A000B3F5A06F03D0B3F5407F06D021E01C4B1F
:1002B0007B6021E01B4B7B601EE01B4B7B601BE0E7
:1002C0001A4B7B6018E0FFF789FF0346122B02D917
:1002D000174B7B6010E0174B7B600DE0FFF77EFF54
:1002E0000346122B02D9144B7B6005E0134B7B6055
:1002F00002E000237B6000BF00BF064B1B6803F4D5
:10030000E0339B0B01337A68B2FBF3F318460837EE
:10031000BD4680BD00800C4004000020000000208D
:10032000003FAB01406F4001809FD500C0D8A700BF
:1003300040B56400C0CF6A00804F120040420F00F9
:1003400080B400AF034B1B681846BD465DF8047BC4
:10035000704700BF0000002080B582B000AF786019
:10036000064A7B681360064BDB6A03F40063002BCC
:1003700001D0FFF741FF0837BD4680BD00000020D7
:1003800000800C4080B400AFBD465DF8047B704730
:1003900080B400AF4FF400431846BD465DF8047BBF
:1003A000704700BF80B400AF4FF47A731846BD4663
:1003B0005DF8047B704700BF80B400AF034B1B683F
:1003C0001846BD465DF8047B704700BF040000205E
:1003D00080B489B000AF78600B46FB701346BB70E9
:1003E000BB78002B04D010237B61444BBB6103E03E
:1003F00000237B61424BBB617B685A6BBB69134036
:100400003B610023FB617B683E4A934216D13E4B21
:10041000FB60FB78062B61D801A252F823F000BFE5
:100420003F0400005D04000081040000A3040000FC
:10043000DD040000DD040000CB04000058E0FB6890
:100440001B6803F4FE43FA691343FB61FB681B68F6
:1004500003F07F03FA691343FB6142E0FB681B680A
:1004600003F0FE431B0E1B02FA691343FB61FB689A
:100470001B6803F4FE031B0CFA691343FB6130E0B5
:10048000FB6804331B6803F4FE43FA691343FB6102
:10049000FB6804331B6803F07F03FA691343FB61B5
:1004A0001FE0FB6804331B6803F0FE431B0E1B02B6
:1004B000FA691343FB61FB6804331B6803F4FE0312
:1004C0001B0CFA691343FB610BE0FB6808331B68E4
:1004D00003F07F03FA691343FB6102E00023FB6131
:1004E00000BF7B69FA699A403B691A437B685A638B
:1004F0002437BD465DF8047B704700BFFFFF808056
:100500008080FFFF00200040B481E00F80B584B000
:1005100000AF786039603B681B79FB72FB7A002B77
:1005200006D11B48002100F083F80346FB7208E067
:100530001748002100F07CF84FF4FA40002100F049
:1005400077F87B680A225A603B681B781A063B687A
:10055000DB781B0403F4F8131A43FB7A1B0203F441
:10056000FE431A433B685B781B0113433A68927859
:100570001343FB603B685B79002B03D0FB6843F0BF
:100580000803FB607B68FA681A601037BD4680BDBF
:10059000405DC60080B584B000AF786039607B688C
:1005A00002225A603B689B78786819460022FFF760
:1005B0000FFF3B681B781A073B685B781B051A43E3
:1005C0003B681B791B0213431A463B68DB781B010F
:1005D0001343FB603B689B79002B03D0FB6843F01F
:1005E0008073FB603B68DB79002B03D0FB6843F032
:1005F0000403FB603B685B79002B03D0FB6843F08E
:100600000203FB603B681B7A002B03D0FB6843F0BE
:100610000103FB603B689B781B041A46FB6813438D
:10062000FB607B68FA68DA601037BD4680BD00BFAA
:1006300080B584B000AF786039607B68134A93421C
:1006400002D9124B7B6006E07B68B3F5FA4F02D209
:100650004FF4FA437B603B68002B03D10C4800F059
:1006600017FC38603A687B6813445A1E7B68B2FBFB
:10067000F3F3FB60FB68002B02D0FB68013BFB60DF
:10068000FB68DBB218461037BD4680BD405DC60032
:100690004081040080B487B000AFF860B9607A6030
:1006A000FB6803F10473DA00BB6813449B007B61B1
:1006B0007B697A681A601C37BD465DF8047B704719
:1006C00080B485B000AF786039607B6803F1047353
:1006D000DA003B6813449B00FB60FB681B6818460C
:1006E0001437BD465DF8047B704700BF80B485B009
:1006F00000AF78607B68002B04D07B68B3F5004FB7
:1007000000D800BF7B68B3FA83F3C3F11F03FB601B
:10071000FB6818461437BD465DF8047B704700BF80
:1007200080B400AF044BDB6C1B0EDBB21846BD4639
:100730005DF8047B704700BFB081E00F80B400AF6C
:10074000054BDB6C03F47F031B0CDBB21846BD4684
:100750005DF8047B704700BFB081E00F80B582B0C8
:1007600000AFFFF7EBFF03464A2B04D0792B02D0F2
:10077000482B21D022E0144B1B699BB203F03F03AE
:100780009BB21B02FB80104B9B6903F0F0039AB2F3
:10079000FB881343FB800C4BDB6903F0F0031B0960
:1007A0009AB2FB881343FB80FB88B3F5017F01D32A
:1007B000064B04E0064B02E0054B00E00023184620
:1007C0000837BD4680BD00BFD0FF0FE000366E0188
:1007D0000048E80180B584B000AF78600123FB6079
:1007E000FFF7BCFF02467B689A4204D30023FB60FC
:1007F0000023BB600BE0FFF7B1FF03465A007B68A4
:100800009A4202D30123BB6001E00223BB60084887
:100810001E21FA68FFF73EFF0549054B5B6823F48C
:100820008072BB681B0213434B601037BD4680BD0E
:1008300000800C4080B582B000AF05481E21FFF754
:100840003FFF78607B6818460837BD4680BD00BF13
:1008500000800C4080B582B000AF214B5B6903F48F
:10086000E063B3F5007F1CD0B3F5007F05D8002B03
:1008700025D0B3F5807F1FD02AE0B3F5C06F24D018
:10088000B3F5E06F1ED0B3F5407F21D1FFF748FFED
:100890000346122B02D9134B7B601CE0124B7B608A
:1008A00019E0FFF73DFF0346122B02D90F4B7B6087
:1008B00011E00F4B7B600EE00E4B7B600BE00E4BAC
:1008C0007B6008E00D4B7B6005E00D4B7B6002E038
:1008D00000237B6000BF7B6818460837BD4680BD9B
:1008E00000800C40804F120040420F0040B5640071
:1008F000C0CF6A00C0D8A700809FD500406F4001DC
:10090000003FAB0180B582B000AF0D4800F0ACFBFA
:100910000346FB70FB78072B05D0092B07D1FFF7A7
:100920008FFC786006E0FFF795FF786002E0002317
:100930007B6000BF7B6818460837BD4680BD00BF9E
:1009400006000C0080B485B000AF78603960284B99
:10095000DB6B002B14BF01230023BB72244B41F639
:100960007132DA63224B5B6803F00703FB60FB68BC
:10097000012B01D9042B02D10023FB7202E00123D9
:10098000FB7200BF7B681B4A934207D9FB7A002B9E
:1009900001D0052300E00423FB6016E07B68154AC4
:1009A00093420BD87B68144A934207D9FB7A002BF9
:1009B00001D0032300E00123FB6006E0FB7A002B5B
:1009C00001D0022300E00023FB600949084B5B686B
:1009D00023F00702FB6813434B60BB7A002B02D065
:1009E000034B0022DA631437BD465DF8047B704781
:1009F00000000C400048E8010024F40080B500AF7E
:100A0000FFF714FC034618460021FFF79BFF80BD4B
:100A100080B582B000AF7860396078683968FFF7D8
:100A200091FF0837BD4680BD90B585B000AF7860B6
:100A30000023BB607B68344A934203D0334A93421D
:100A400000D000E000BF786800F00EFB0346FB60BA
:100A50007B682D4A934203D02C4A934206D00CE087
:100A60002B4B9B6A03F00303FB6006E0284B9B6A59
:100A700003F00C039B08FB6000BFFB68032B3AD814
:100A800001A252F823F000BFBF0A0000990A00003B
:100A9000A10A0000A90A0000FFF77AFCB8602DE067
:100AA000FFF78AFCB86029E0FFF7A6FB0446FFF7D2
:100AB000C1FE0346013324FA03F3BB601EE00023AA
:100AC000BB607B68104A934203D07B680F4A934215
:100AD00010D10F4B9A6A7B680B498B4201D11023CE
:100AE00000E0142322FA03F3002B03D0FFF75AFC93
:100AF000B86003E002E00023BB6000BFBB6818469B
:100B00001437BD4690BD00BF02001A0003001C0050
:100B100000800C4080B483B000AF7860094B5B6DFF
:100B200003F00103002B00D006E000BF054B1A6D57
:100B30007B681340002BF9D10C37BD465DF8047B70
:100B4000704700BF00800C4080B582B000AF1048F5
:100B500000F08AFA0346FB70FB78032B07D0092BC1
:100B600009D0022B0BD1FFF727FC78600AE0FFF7D2
:100B70000FFC786006E0FFF763FB786002E000237B
:100B80007B6000BF7B6818460837BD4680BD00BF4C
:100B900007232200B0B584B000AF786039607B686D
:100BA0001B0903F00F03FB60FB68013B062B00F2FF
:100BB000F48001A252F823F0D50B00009B0D000039
:100BC0009B0D00000B0C0000350C0000830C000096
:100BD000470D00003B68002B03D03B68082B00D872
:100BE00000BFFFF70BFF6F496E4B1B6823F4E03229
:100BF0003B68013B9B0313430B60FFF7FDFAB860B2
:100C0000B8680021FFF704FFC8E03B68002B04D060
:100C10003B68B3F5007F00D800BF3868FFF766FD7A
:100C2000386060495F4B9B6823F00F023B681343B9
:100C30008B60B3E03B68002B04D03B68B3F5007FCA
:100C400000D800BFFFF7DAFEFFF7FAFA02463B686A
:100C5000B2FBF3F31846FFF7BDFD3868FFF746FD1A
:100C6000386050494F4B5B6823F00F023B681343D9
:100C70004B60FFF7C1FAB860B8680021FFF7C8FE03
:100C80008CE07B68484A93421ED0474A934203D87F
:100C9000464A934207D055E0454A934225D0454AFB
:100CA00093423FD04EE00420FFF734FF3868FFF74F
:100CB0001DFD38603B493B4B9B6E23F0F0023B68C7
:100CC0001B0113438B663DE00420FFF723FF3868C8
:100CD000FFF70CFD38603349324B9B6E23F4706292
:100CE0003B681B0213438B662CE03B680F2B03D938
:100CF0003B68802B00D800BF0420FFF70BFF38684B
:100D0000FFF7F4FC3860274D264B9B6E23F44054CC
:100D10001020FFF7EBFC02463B689B1A1B032343A2
:100D2000AB660FE00420FFF7F5FE3868FFF7DEFC46
:100D300038601C491B4B9B6E23F003023B68134336
:100D40008B6600BF2AE07B681B4A934203D01B4A94
:100D5000934210D020E04020FFF7DCFE3868FFF718
:100D6000C5FC38600F490F4B1B6F23F003023B6833
:100D700013430B6710E04020FFF7CCFE3868FFF705
:100D8000B5FC38600749074B1B6F23F030023B6806
:100D90001B0113430B6700BF00E000BF1037BD46C7
:100DA000B0BD00BF00800C4060261400601610002B
:100DB0006000260060062A007007160070171800F1
:100DC00080B586B000AF78600B46FB7000233B61B6
:100DD0007B681B0A03F00F03013B092B45D801A2D6
:100DE00052F823F0210E0000270E00000D0E000027
:100DF0006B0E00006B0E00002D0E0000370E000081
:100E00006B0E00006B0E0000410E0000194B7B6161
:100E1000194800F03DF803461846FFF7DBFC12E0E6
:100E2000164B7B610FE0164B7B610CE0154B7B6131
:100E300001233B6107E0144B7B6110233B6102E01F
:100E4000124B7B6100BF7B681B0B03F01F03FB6031
:100E50003B69002B02D03869FFF75CFEFB787869AC
:100E6000F9681A46FFF716FC00E000BF1837BD46C8
:100E700080BD00BF40800C400043020008800C4051
:100E800044800C4058800C4060800C4078800C40BE
:100E900090B585B000AF78607B6803F47813B3F544
:100EA000B01F00F0AB80B3F5B01F1AD8B3F5402FD8
:100EB00000F0BF80B3F5402F08D8B3F5003F3CD019
:100EC000B3F5802F2DD0002B27D0BEE0B3F5801FC7
:100ED0003CD0B3F5A01F47D0B3F5602F00F0AD8034
:100EE000B3E0B3F5081F00F0AC80B3F5081F0AD8D3
:100EF000B3F5D01F25D0B3F5E01F7AD0B3F5C01FEE
:100F000000F08980A1E0B3F5201F4ED0B3F5281F73
:100F100062D0B3F5181F35D097E0FFF791F9F8606C
:100F200096E0FFF78DF9F8604C4B9B6803F00F03D8
:100F30001A46FB68D340FB608AE0FFF75DF9F86072
:100F400086E04748FFF770FDF86081E04448FFF70E
:100F50006BFDF860414B9B6E03F0F0031B091A46D2
:100F6000FB68D340FB6073E03D48FFF75DFDF86030
:100F70003A4B9B6E03F470631B0A1A46FB68D3401E
:100F8000FB6065E03648FFF74FFDF860334B9B6E22
:100F900003F440531C0B1020FFF7A8FB0346234427
:100FA0001A46FB68D340FB6052E02D48FFF73CFD3A
:100FB000F8602A4B9B6E03F440531B0B1A46FB68E8
:100FC000D340FB60254BDB6F03F007030133FA6866
:100FD000B2FBF3F3FB603BE02148FFF725FDF8602F
:100FE0001E4B9B6E03F003031A46FB68D340FB6065
:100FF0002EE01C48FFF718FDF86029E01948FFF7BC
:1010000013FDF860154B1B6F03F003031A46FB68D2
:10101000D340FB601CE01348FFF706FDF8600F4B60
:101020001B6F03F030031B091A46FB68D340FB60BB
:101030000EE0FFF767FCF8600AE0FFF70BFCF860D2
:1010400006E0FFF781FDF86002E00023FB6000BFCF
:10105000FB6818461437BD4690BD00BF00800C40A9
:1010600002001A0003001C0080B485B000AF786055
:101070000123FB737B6803F00F03BB60BB68013B7C
:10108000062B00F2938001A252F823F0A910000071
:10109000DF1000001B110000AD110000AD110000B9
:1010A0005711000079110000454BDB6A03F47053BF
:1010B000B3F5805F09D0B3F5005F03D0B3F5006FDF
:1010C00006D008E00223FB7308E00323FB7305E06E
:1010D0000423FB7302E00523FB7300BF69E0384B78
:1010E0009B6A03F00303022B06D0032B07D0012BCE
:1010F00008D10323FB730FE00223FB730CE00623EC
:10110000FB7309E02E4B9B6A03F48033002B02D063
:101110000A23FB7300E000BF4BE0294B9B6A03F0FE
:101120000C03082B06D00C2B07D0042B08D103236B
:10113000FB730FE00223FB730CE00623FB7309E053
:101140001F4B9B6A03F48013002B02D00A23FB730E
:1011500000E000BF2DE01A4B1B6803F08053002B0A
:1011600003D0B3F1805F03D023E00723FB7302E0D9
:101170000923FB7300BF1CE0114BDB6A03F46033EF
:10118000B3F5803F08D0B3F5003F08D0B3F5004F6A
:1011900008D10923FB7308E00223FB7305E0032356
:1011A000FB7302E00123FB7300BF02E00023FB732B
:1011B00000BFFB7B18461437BD465DF8047B7047C3
:1011C00000800C4080B588B000AF78600B46FB70A3
:1011D0000323FB610323FB7600233B617B6803F061
:1011E0000F03FB60FB68013B062B00F2288101A284
:1011F00052F823F011120000E7120000E71200007D
:101200003F1400003F140000AD130000D71300008E
:10121000FB78023B082B00F2148101A252F823F064
:10122000451200004F120000591200009B120000EE
:101230004314000043140000431400004314000052
:10124000431400000423FB610023FB7631E00323F9
:10125000FB610123FB762CE00223FB610223FB767A
:10126000FFF77CFA034601331846FFF7B3FAFFF79E
:1012700067F80246764B9A4206D9764A754B1B6848
:1012800043F06003136014E0724A724B1B6823F052
:10129000600343F0200313600BE00123FB61032391
:1012A000FB76FFF75BFA034601331846FFF792FA25
:1012B00000BFFB7E18460121012200F0D1F8FFF7A4
:1012C0009DFB644AFB6953626348FFF7E1FD0346F7
:1012D0001846FFF77FFAFEF78FFFB860B868002165
:1012E000FFF796FBB0E0FB78013B092B00F2AB80E7
:1012F00001A252F823F000BF2113000027130000C1
:101300003713000047140000471400004713000083
:101310004714000047140000471400006313000046
:1013200000237B6122E000200121012200F098F8D7
:1013300002237B611AE001200121012200F090F8D4
:1013400001237B6112E0FEF757FFB860B868FFF732
:1013500041FA424804210122FFF79CF903237B61F3
:1013600004E000237B6101233B6100BFFB68022B8B
:101370000DD13849374B9B6A23F4803323F00303A4
:101380007A691A433B691B0413438B625CE0314961
:10139000304B9B6A23F4801323F00C037A6992008C
:1013A0001A433B691B0513438B624DE0FB78072B07
:1013B00002D0092B07D047E0264A264B1B6823F0B2
:1013C0008053136006E0234A224B1B6843F080538E
:1013D000136000BF38E0FB78032B14D0092B22D018
:1013E000022B00D030E000200121012200F038F86B
:1013F000184B40225A6200BF164BDB6A03F480335D
:10140000002BF9D01AE001200121012200F028F878
:10141000104B60225A6200BF0E4BDB6A03F40033AC
:10142000002BF9D00AE00B4B20225A6200BF094B77
:10143000DB6A03F40043002BF9D000BF04E000BFD7
:1014400002E000BF00E000BF2037BD4680BD00BF06
:101450000048E80100800C400043020040800C403E
:1014600080B586B000AF0346FB710B46BB711346D7
:101470007B71FB79042B48D801A252F823F000BFFE
:10148000CD140000BF140000A31400009514000048
:10149000B114000001233B610223FB6001237B6147
:1014A0001DE004233B610823FB6003237B6116E0FE
:1014B00010233B612023FB6005237B610FE0402369
:1014C0003B618023FB6007237B6108E04FF480735E
:1014D0003B614FF40073FB6009237B6100BFBB7964
:1014E000002B0ED00B4A3B6913627B79002B0DD089
:1014F00000BF09487969FFF7E3F80346002BF8D0ED
:1015000004E0044AFB68136200E000BF1837BD46E0
:1015100080BD00BF00800C402C800C4080B483B0A4
:1015200000AF03463960FB71FB79002B0DD0FB79CE
:10153000012B0AD0FB79022B07D0FB79032B04D0B7
:10154000FB79042B01D0FB79052B0949FA793B681B
:10155000012000FA03F318461346DB0013449B00F6
:101560000B44103358600C37BD465DF8047B704760
:101570000060004080B483B000AF03463960FB7167
:10158000FB79002B0DD0FB79012B0AD0FB79022BC4
:1015900007D0FB79032B04D0FB79042B01D0FB7916
:1015A000052B0949FA793B68012000FA03F3184634
:1015B0001346DB0013449B000B44103318600C37B8
:1015C000BD465DF8047B70470060004090B585B073
:1015D00000AFB9607B600346FB731346BB73FB7BB4
:1015E000002B0DD0FB7B012B0AD0FB7B022B07D0FD
:1015F000FB7B032B04D0FB7B042B01D0FB7B052B57
:10160000BB7B002B0DD07B68002B05D0FB7B1846E5
:10161000B968FFF7AFFF04E0FB7B1846B968FFF736
:101620007DFFBB68072B1CD82A4CFA7B2948F97B25
:101630000B46DB000B449B0003445968BB689B00CE
:1016400018460F238340DB430B40B97BB86880000A
:10165000814019431346DB0013449B002344596027
:1016600024E01C4CFA7B1B48F97B0B46DB000B4447
:101670009B00034408331968BB6803F18043083BAF
:101680009B0018460F238340DB431940B87BBB689F
:1016900003F18043083B9B0000FA03F31943134610
:1016A000DB0013449B00234408331960BB7B002BF1
:1016B0000DD17B68002B05D0FB7B1846B968FFF77E
:1016C00059FF04E0FB7B1846B968FFF727FF143782
:1016D000BD4690BD0060004080B485B000AF78602A
:1016E000194B5B69DBB203F00F03DBB29B00FB73AA
:1016F000154B1B6903F0C0039B09DAB2FB7B134354
:10170000FB737B68FA7B9A700F4B1B69DBB203F0AB
:101710003F03DAB27B685A700B4B9B69DBB223F054
:101720000F03FB73084BDB6903F0F0031B09DAB20C
:10173000FB7B1343FB737B68FA7B1A701437BD463F
:101740005DF8047B704700BFD0FF0FE080B586B026
:1017500000AFF860B9607A60FB70BB68002B03D102
:101760002448FFF795FBB860FB78202B0CD0202B8A
:1017700002DC002B05D03AE0402B08D0602B09D0CA
:1017800035E010237B6108E008237B6105E0062338
:101790007B6102E004237B6100BFBB689A007B6928
:1017A000796801FB03F35B0813443B617B697A684A
:1017B00002FB03F33A69B2FBF3F33B613B69043B81
:1017C0003B613B699B013B613A690B4B13403B61B9
:1017D000FB681B6823F06002FB681A60FB681A68EC
:1017E000FB781A43FB681A60FB683A695A6118373C
:1017F000BD4680BD40810400C0FF1F0080B582B09F
:1018000000AF786039607B68244A93420FD07B68D0
:10181000234A93420BD07B68224A934207D07B68CD
:10182000214A934203D07B68204A934200D100BFF3
:10183000786800F06DF83B689B7C002B05D07B68D6
:101840001B6843F080427B681A603B68DB7C002B9E
:1018500007D03B681B7D43F01003DBB21A467B6860
:101860009A653B685B7B1A463B681B8A13433A6860
:10187000D2891A437B685A603B6859683B689A680A
:101880003B681B7B7868FFF761FF3B681B781A4653
:101890007B68DA600837BD4680BD00BF00C00040ED
:1018A00000C4004000C8004000E0004000E40040E8
:1018B00080B485B000AF786039607B689B6823F0A6
:1018C0007703FB603B681B78002B03D0FB6843F079
:1018D0004003FB603B689B78002B03D0FB6843F020
:1018E0002003FB603B685B78002B03D0FB6843F070
:1018F0001003FB603B68DB781A46FB681343FB6010
:101900007B68FA689A601437BD465DF8047B7047BF
:1019100080B483B000AF78607B68244A93420FD0D4
:101920007B68234A93420BD07B68224A934207D0BC
:101930007B68214A934203D07B68204A934200D1BE
:1019400000BF7B6840F6AA62DA607B6800221A60FA
:101950007B6841F205025A607B6800229A607B68CE
:1019600000225A617B680022DA647B6841F6F972D2
:101970009A647B6800225A657B680C4A934202D1C4
:101980007B6800221A657B6800229A657B68084A9A
:10199000934203D07B68074A934202D17B680022BE
:1019A000DA650C37BD465DF8047B704700C0004027
:1019B00000C4004000C8004000E0004000E40040D7
:1019C00080B483B000AF78600B46FB7000BF7B68CB
:1019D0001B6903F04003002BF9D0FA787B685A6347
:1019E0000C37BD465DF8047B704700BF80B500AF83
:1019F00000F006F800F02CF800F06AF880BD00BF97
:101A000080B500AF022001210122FFF729FD11203E
:101A10000421FFF7D7FB0A48FEF79EFC0948042182
:101A2000FFF7B8F807480121FFF7CAF90648012176
:101A3000FFF7C6F905480121FFF7C2F980BD00BFD5
:101A4000006CDC02408104000032040000D204007B
:101A5000B0B588B000AF1C4B07F108041D460FCD90
:101A60000FC495E8030084E803004FF4E1333B61C1
:101A700005237B750023FB824FF480533B830023B7
:101A80003B750023BB760023FB7600233B7707F1F1
:101A900008030E481946FFF7B1FE00233B710023EF
:101AA0007B710023BB710023FB7100237B7100233A
:101AB000BB710023FB713B1D04481946FFF7F8FE7C
:101AC0002037BD46B0BD00BFEC31000000E0004053
:101AD00080B400AF1F4A1F4BD3F89C3043F0010382
:101AE000C2F89C301B4A1B4BD3F8943023F00F03F1
:101AF00043F00403C2F89430164A164BD3F89430DE
:101B000023F0F00343F01003C2F89430114A114B54
:101B1000D3F8C03043F08003C2F8C0300D4A0D4BFB
:101B2000D3F8B83023F0704343F08043C2F8B830A4
:101B3000094A094B5B6D23F4E06343F480735365FA
:101B4000054A054B5B6D43F003035365BD465DF8E5
:101B5000047B70470060004000E0004080B483B028
:101B600000AF0346FB71084997F907305B09FA7922
:101B700002F01F02012000FA02F241F823200C3784
:101B8000BD465DF8047B704700E100E080B483B09F
:101B900000AF03463960FB7197F90730002B0BDA71
:101BA0000D49FB7903F00F03043B3A68D2B25201AE
:101BB000D2B20B441A7609E0084997F907303A681F
:101BC000D2B25201D2B20B4483F800230C37BD4687
:101BD0005DF8047B704700BF00ED00E000E100E02D
:101BE00080B582B000AF78607B68013BB3F1807F45
:101BF00001D301230FE00A4A7B68013B53604FF099
:101C0000FF300721FFF7C2FF054B00229A60044B0B
:101C100007221A60002318460837BD4680BD00BF62
:101C200010E000E080B400AF044BDB6C1B0EDBB2B5
:101C30001846BD465DF8047B704700BFB081E00FD9
:101C400080B582B000AFFFF7EDFF0346FB713B1D8F
:101C50001846FFF741FDFB790F2B0AD93B79022B80
:101C600007D9054A044B1B6823F0500343F01003C7
:101C700013600837BD4680BDC0800C4080B483B07F
:101C800000AF78607B685B6A18460C37BD465DF82C
:101C9000047B704780B483B000AF78600B46FB7064
:101CA000FA787B685A600C37BD465DF8047B704754
:101CB00080B483B000AF786039607B68DA6C3B68D1
:101CC0001A437B68DA640C37BD465DF8047B7047C5
:101CD00080B586B000AF00233B7400237B740023E3
:101CE000BB741F23FB7400233B7500237B7500230B
:101CF0003B751023FB740323BB7407F110031148D9
:101D00001946FEF703FC00233B7100237B7100237F
:101D1000BB710023FB7100233B7200237B72002305
:101D2000BB720023FB7200233B730223BB710023B1
:101D30003B723B1D03481946FEF72CFC1837BD4685
:101D400080BD00BF0020004080B500AF022001210F
:101D50000122FFF785FB11200421FFF733FA0A481F
:101D6000FEF7FAFA09480421FEF714FF074801219B
:101D7000FFF726F806480121FFF722F80548012160
:101D8000FFF71EF880BD00BF006CDC02408104003C
:101D900000D204000002050080B500AF022001213E
:101DA0000122FFF75DFB11200421FFF70BFA054824
:101DB0000121FFF705F80220042104220023FFF788
:101DC00005FC80BD00D2040080B400AF044B1B684A
:101DD0000133034A1360BD465DF8047B704700BFC2
:101DE000580A002080B485B000AF7860074B1B68AC
:101DF000FB6000BF054B1A68FB68D21A7B689A42E9
:101E0000F8D31437BD465DF8047B7047580A0020AC
:101E100080B584B000AF78600023FB607EE00023D3
:101E2000BB6075E0FA6813465B0013445B011A4619
:101E30007B681344BA6853F82230012B32D1404BEF
:101E400010229A6500BF00BF00BF00BF00BF00BFE7
:101E500000BF00BF00BF00BF00BF00BF00BF00BF8A
:101E600000BF00BF00BF00BF00BF00BF00BF00BF7A
:101E700000BF00BF00BF00BF00BF00BF00BF00BF6A
:101E800000BF00BF2E4B1022DA6500BF00BF00BFAD
:101E900000BF00BF00BF00BF00BF00BF00BF00BF4A
:101EA00000BF32E0264B10229A6500BF00BF00BF82
:101EB00000BF00BF00BF00BF00BF00BF00BF00BF2A
:101EC00000BF00BF1E4B1022DA6500BF00BF00BF7D
:101ED00000BF00BF00BF00BF00BF00BF00BF00BF0A
:101EE00000BF00BF00BF00BF00BF00BF00BF00BFFA
:101EF00000BF00BF00BF00BF00BF00BF00BF00BFEA
:101F000000BF00BF00BF00BF00BFBB680133BB60A4
:101F1000BB68172B86DDFB680133FB60FB680B2B6E
:101F20007FF77DAFFB680C2B06D106480121FFF738
:101F3000B1FE0120FFF756FF1037BD4680BD00BF40
:101F4000006000400020004080B483B000AF012357
:101F50007B603EE001233B6035E0224B10229A6516
:101F600000BF00BF00BF00BF00BF00BF00BF00BF79
:101F700000BF00BF00BF00BF00BF1A4B1022DA65D0
:101F800000BF00BF00BF00BF00BF00BF00BF00BF59
:101F900000BF00BF00BF00BF00BF00BF00BF00BF49
:101FA00000BF00BF00BF00BF00BF00BF00BF00BF39
:101FB00000BF00BF00BF00BF00BF00BF00BF00BF29
:101FC0003B6801333B603B68182BC6DD7B680133FF
:101FD0007B607B680C2BBDDD0C37BD465DF8047B58
:101FE000704700BF0060004080B500AFFFF728FEDB
:101FF000FFF7FCFCFFF7A8FEFFF76AFEFFF7CCFE39
:102000000748FEF745FF0246064BA3FB02239B0948
:102010001846FFF7E5FD0346002B00D0FEE780BD24
:1020200050000200D34D621098B500AF1A48FFF778
:1020300025FE0246194B1A60194B1B68174A126895
:10204000184941F82320164B1C68144B1B6818468E
:1020500000F052FD02460B46104619460CA3D3E988
:10206000002300F0BFFD02460B460F48E10001448B
:10207000C1E900230A4B1B68632B03D1084B0022E4
:102080001A6004E0064B1B680133054A136098BDD3
:102090006666666666664A3F0020004020010020B2
:1020A0009C000020C80800202801002090B488B0BF
:1020B00000AFF860B9607A603B60BB68BB617B6869
:1020C0007B613B683B610023FB6173E0FB69002B94
:1020D0001EDBFB69072B1BDCFB69C3F107017A6977
:1020E000384B1340002B03DA013B63F0010301334B
:1020F0001C463548FA6813465B001344DB000B446A
:1021000040F823407B69DA0F13445B107B614EE09B
:10211000FB69072B1EDDFB690F2B1BDCFB69C3F181
:102120001701BA69274B1340002B03DA013B63F018
:10213000010301331C462448FA6813465B0013442C
:10214000DB000B4440F82340BB69DA0F13445B10FB
:10215000BB612CE0FB690F2B1EDDFB69172B1BDC21
:10216000FB69C3F127013A69164B1340002B03DAD0
:10217000013B63F0010301331C461348FA68134620
:102180005B001344DB000B4440F823403B69DA0F4B
:1021900013445B103B610AE00B49FA6813465B008D
:1021A0001344DB00FA691344002241F82320FB6941
:1021B0000133FB61FB69172B88DD2037BD4690BCDE
:1021C000704700BF010000804804002080B586B041
:1021D00000AFF860B9607A6000237B6108E078693D
:1021E000F968BA687B68FFF761FF7B6901337B613F
:1021F0007B690B2BF3DD1837BD4680BD80B500AF82
:10220000FFF7F2FE24480421FFF752FD1420FFF7E8
:10221000A5FC21483C21FFF7D3FB1F483C21FFF7D9
:10222000CFFB4FF47A70FFF7DDFDFFF78DFE4FF423
:102230007A70FFF7D7FD0020FF21FF22FFF7C6FFCE
:10224000164B1B78DBB2002B08D0144B00221A70FF
:10225000134B1B7810481946FFF7B2FB114B1B7844
:10226000DBB2002B15D00F4B00221A700E4B002250
:102270001A700E4800F02EF80C4B00221A700C4B0E
:1022800000221A6004480A21FFF79AFB094800F06F
:1022900049FAFFF7C9FED3E700E000400E01002035
:1022A000100B00200C0100200D010020A0000020D8
:1022B000080100200432000080B483B000AF7860D1
:1022C0007B68DB69DBB218460C37BD465DF8047BE2
:1022D000704700BF80B584B000AF786078689649D9
:1022E00000F0D8FE0346002B02D100F06DFAFBE1AE
:1022F0007868924900F0CEFE0346002B08D10020FA
:102300000021FF22FFF762FF8D48FFF781FDEBE11F
:1023100078688C4900F0BEFE0346002B08D10020EF
:10232000FF210022FFF752FF8548FFF771FDDBE137
:102330007868854900F0AEFE0346002B08D1642082
:1023400000210022FFF742FF7D48FFF761FDCBE14E
:1023500078687E4900F09EFE0346002B08D1C82015
:102360000021C822FFF732FF7548FFF751FDBBE19E
:102370007868774900F08EFE0346002B02D1FFF704
:10238000E3FDB1E17868734900F084FE0346002B59
:102390004ED1714B00221A6011E06F4B1B6818463A
:1023A00000210022FFF712FF6548FFF731FD64208E
:1023B000FFF718FD684B1B680133674A1360664BD3
:1023C0001B68952BE9DD644B00221A6011E0624B1B
:1023D0001B68002019460022FFF7F8FE5848FFF757
:1023E00017FD6420FFF7FEFC5B4B1B6801335A4A64
:1023F0001360594B1B68952BE9DD574B00221A607F
:1024000011E0554B1B68002000211A46FFF7DEFE45
:102410004B48FFF7FDFC6420FFF7E4FC4E4B1B68C4
:1024200001334D4A13604C4B1B68952BE9DD5BE192
:1024300078684A4900F02EFE0346002B4BD100235A
:10244000BB6044E00023FB6014E0FB6803F0010381
:10245000002B06D1F868FF2100220023FFF726FE9B
:1024600005E0F8680021FF220023FFF71FFEFB684C
:102470000133FB60FB680B2BE7DD3148FFF7C8FC3D
:102480006420FFF7AFFC0023FB6014E0FB6803F05F
:102490000103002B06D0F868FF2100220023FFF77C
:1024A00005FE05E0F8680021FF220023FFF7FEFD8E
:1024B000FB680133FB60FB680B2BE7DD2048FFF76F
:1024C000A7FC6420FFF78EFCBB680133BB60BB68D0
:1024D000132BB7DD08E1204B00221A6013E01E4BDE
:1024E0001B681D4A126811467A680A4411781C4A12
:1024F000D1541C4B1B6801331A4A1360164B1B68DE
:102500000133154A1360144B1B681A467B68134449
:102510001B78202BE3D1134B1B68114A0021D154A7
:102520000F48114900F0B6FD0346002B40F0DC8057
:10253000094B00221A6030E008320000103200001F
:1025400048040020143200001C3200002432000035
:102550002C32000034320000080B00203C32000016
:102560005C0A00201001002044320000604B1B6810
:10257000604A11685E4A12680A44013279680A4466
:1025800011785D4AD1545D4B1B6801335B4A13607F
:10259000574B1B680133564A1360564B1A68544B0D
:1025A0001B68134401337A6813441B78202BDDD158
:1025B000524B1B68504A0021D1544D4B00221A60E7
:1025C00019E04B4B1B684B4A11684C4A1268114486
:1025D000474A12680A44023279680A441178484A24
:1025E000D154484B1B680133464A1360404B1B686B
:1025F00001333F4A13603F4B1A68404B1B681A4433
:102600003B4B1B68134402337A6813441B78202B1E
:10261000D7D13C4B1B683A4A0021D154344B00229D
:102620001A601CE0324B1B68324A1168334A126848
:102630001144344A126811442D4A12680A44033284
:1026400079680A441178304AD154304B1B68013301
:102650002E4A1360264B1B680133254A1360254B15
:102660001A68264B1B681A44264B1B681A44204BD9
:102670001B68134403337A6813441B78202BD1D191
:10268000224B1B68204A0021D1541B4800F0BCFC9F
:1026900002461F4B1A601A4800F0B6FC02461D4B5A
:1026A0001A60194800F0B0FC02461B4B1A60184B28
:1026B0001968184B1A68184B1B68084611461A46C9
:1026C000FFF784FD1548FFF7A3FB154B00221A7096
:1026D000084B00221A60094B00221A600B4B0022A3
:1026E0001A60084B00221A601037BD4680BD00BF3B
:1026F000080B0020100100200C0B0020140100200A
:10270000FC0A00201C010020040B002018010020FE
:10271000000B0020F80A0020C00A00204804002016
:102720005C0A002080B584B000AF78600023FB60B5
:102730000AE0FB687A6813441B7808481946FFF7DB
:102740003FF9FB680133FB60FB687A6813441B7830
:10275000002BEED11037BD4680BD00BF00E0004029
:1027600080B500AF1248FFF7A7FD03461A46114B8C
:102770001A70114B01221A700E4B1B780D2B0BD1C6
:102780000E4B1B685A1C0D490A600D4A0021D1549A
:102790000C4B01221A700AE0084B1B68054A11789D
:1027A000074AD154054B1B680133044A136080BDAE
:1027B00000E00040100B00200E0100200801002066
:1027C000A00000200C01002080B500AF1F480A21A6
:1027D000FFF7F6F81E48FFF7A5FF1C480A21FFF790
:1027E000EFF81C48FFF79EFF18480A21FFF7E8F8AA
:1027F0001948FFF797FF15480A21FFF7E1F8174836
:10280000FFF790FF11480A21FFF7DAF81448FFF7A5
:1028100089FF0E480A21FFF7D3F81248FFF782FF1D
:102820000A480A21FFF7CCF80F48FFF77BFF07485B
:102830000A21FFF7C5F80D48FFF774FF03480A2186
:10284000FFF7BEF80A48FFF76DFF80BD00E00040CB
:102850005432000060320000083200006C32000088
:10286000703200007C320000883200009432000098
:10287000A032000081F0004102E000BF83F000437D
:1028800030B54FEA41044FEA430594EA050F08BF0B
:1028900090EA020F1FBF54EA000C55EA020C7FEACF
:1028A000645C7FEA655C00F0E2804FEA5454D4EB4C
:1028B0005555B8BF6D420CDD2C4480EA020281EA16
:1028C000030382EA000083EA010180EA020281EA4E
:1028D0000303362D88BF30BD11F0004F4FEA0131A0
:1028E0004FF4801C4CEA113102D0404261EB4101AF
:1028F00013F0004F4FEA03334CEA133302D0524235
:1029000063EB430394EA050F00F0A780A4F10104F0
:10291000D5F1200E0DDB02FA0EFC22FA05F280182A
:1029200041F1000103FA0EF2801843FA05F3594110
:102930000EE0A5F120050EF1200E012A03FA0EFC8F
:1029400028BF4CF0020C43FA05F3C01851EBE371B9
:1029500001F0004507D54FF0000EDCF1000C7EEBD6
:1029600000006EEB0101B1F5801F1BD3B1F5001F14
:102970000CD349085FEA30004FEA3C0C04F1010433
:102980004FEA445212F5800F80F09A80BCF1004F5C
:1029900008BF5FEA500C50F1000041EB045141EADE
:1029A000050130BD5FEA4C0C404141EB010111F4DF
:1029B000801FA4F10104E9D191F0000F04BF01468A
:1029C0000020B1FA81F308BF2033A3F10B03B3F168
:1029D00020020CDA0C3208DD02F1140CC2F10C02F8
:1029E00001FA0CF021FA02F10CE002F11402D8BF56
:1029F000C2F1200C01FA02F120FA0CFCDCBF41EA22
:102A00000C019040E41AA2BF01EB0451294330BDF0
:102A10006FEA04041F3C1CDA0C340EDC04F11404CD
:102A2000C4F1200220FA04F001FA02F340EA0300A4
:102A300021FA04F345EA030130BDC4F10C04C4F1EA
:102A4000200220FA02F001FA04F340EA03002946CA
:102A500030BD21FA04F0294630BD94F0000F83F414
:102A6000801306BF81F480110134013D4EE77FEAF7
:102A7000645C18BF7FEA655C29D094EA050F08BF43
:102A800090EA020F05D054EA000C04BF1946104624
:102A900030BD91EA030F1EBF0021002030BD5FEA68
:102AA000545C05D14000494128BF41F0004130BD90
:102AB00014F580043CBF01F5801130BD01F00045E4
:102AC00045F0FE4141F470014FF0000030BD7FEA57
:102AD000645C1ABF194610467FEA655C1CBF0B4652
:102AE000024650EA013406BF52EA033591EA030F69
:102AF00041F4002130BD00BF90F0000F04BF002161
:102B0000704730B54FF4806404F132044FF0000593
:102B10004FF0000150E700BF90F0000F04BF00210C
:102B2000704730B54FF4806404F1320410F0004572
:102B300048BF40424FF000013EE700BF42004FEA6D
:102B4000E2014FEA31014FEA02701FBF12F07F43EA
:102B500093F07F4F81F06051704792F0000F14BFE7
:102B600093F07F4F704730B54FF4607401F000452B
:102B700021F0004120E700BF50EA010208BF704782
:102B800030B54FF000050AE050EA010208BF704777
:102B900030B511F0004502D5404261EB41014FF4E0
:102BA000806404F132045FEA915C3FF4DCAE4FF0E4
:102BB00003025FEADC0C18BF03325FEADC0C18BFCB
:102BC000033202EBDC02C2F1200300FA03FC20FA1C
:102BD00002F001FA03FE40EA0E0021FA02F1144469
:102BE000C1E600BF70B54FF0FF0C4CF4E06C1CEA7E
:102BF00011541DBF1CEA135594EA0C0F95EA0C0FF3
:102C000000F0DEF82C4481EA030621EA4C5123EA65
:102C10004C5350EA013518BF52EA033541F4801194
:102C200043F4801338D0A0FB02CE4FF00005E1FB47
:102C300002E506F00042E0FB03E54FF00006E1FB91
:102C400003569CF0000F18BF4EF0010EA4F1FF04D4
:102C5000B6F5007F64F5407404D25FEA4E0E6D4114
:102C600046EB060642EAC62141EA55514FEAC52025
:102C700040EA5E504FEACE2EB4F1FD0C88BFBCF5A1
:102C8000E06F1ED8BEF1004F08BF5FEA500E50F152
:102C9000000041EB045170BD06F0004646EA010118
:102CA00040EA020081EA0301B4EB5C04C2BFD4EB4A
:102CB0000C0541EA045170BD41F480114FF0000E43
:102CC000013C00F3AB8014F1360FDEBF002001F0B1
:102CD000004170BDC4F10004203C35DA0C341BDC2B
:102CE00004F11404C4F1200500FA05F320FA04F0FD
:102CF00001FA05F240EA020001F0004221F0004131
:102D000010EBD37021FA04F642EB06015EEA430EA3
:102D100008BF20EAD37070BDC4F10C04C4F12005D3
:102D200000FA04F320FA05F001FA04F240EA020086
:102D300001F0004110EBD37041F100015EEA430E57
:102D400008BF20EAD37070BDC4F1200500FA05F277
:102D50004EEA020E20FA04F301FA05F243EA0203F6
:102D600021FA04F001F0004121FA04F220EA020005
:102D700000EBD3705EEA430E08BF20EAD37070BD4B
:102D800094F0000F0FD101F00046400041EB01012B
:102D900011F4801F08BF013CF7D041EA060195F00D
:102DA000000F18BF704703F00046520043EB0303C7
:102DB00013F4801F08BF013DF7D043EA06037047B4
:102DC00094EA0C0F0CEA135518BF95EA0C0F0CD0BF
:102DD00050EA410618BF52EA4306D1D181EA030105
:102DE00001F000414FF0000070BD50EA410606BFFF
:102DF0001046194652EA430619D094EA0C0F02D144
:102E000050EA013613D195EA0C0F05D152EA033688
:102E10001CBF104619460AD181EA030101F00041A6
:102E200041F0FE4141F470014FF0000070BD41F0EF
:102E3000FE4141F4780170BD70B54FF0FF0C4CF4C9
:102E4000E06C1CEA11541DBF1CEA135594EA0C0FE8
:102E500095EA0C0F00F0A7F8A4EB050481EA030E35
:102E600052EA03354FEA013100F088804FEA03331C
:102E70004FF0805545EA131343EA12634FEA0222EA
:102E800045EA111545EA10654FEA00260EF00041AB
:102E90009D4208BF964244F1FD0404F5407402D2FD
:102EA0005B084FEA3202B61A65EB03055B084FEA8E
:102EB00032024FF480104FF4002CB6EB020E75EB8B
:102EC000030E22BFB61A754640EA0C005B084FEAB3
:102ED0003202B6EB020E75EB030E22BFB61A754630
:102EE00040EA5C005B084FEA3202B6EB020E75EB7B
:102EF000030E22BFB61A754640EA9C005B084FEAF3
:102F00003202B6EB020E75EB030E22BFB61A7546FF
:102F100040EADC0055EA060E18D04FEA051545EAEE
:102F200016754FEA06164FEAC30343EA52734FEA97
:102F3000C2025FEA1C1CC0D111F4801F0BD141EA10
:102F400000014FF000004FF0004CB6E711F4801F75
:102F500004BF01430020B4F1FD0C88BFBCF5E06F55
:102F60003FF6AFAEB5EB030C04BFB6EB020C5FEA65
:102F7000500C50F1000041EB045170BD0EF0004EBA
:102F80004EEA113114EB5C04C2BFD4EB0C0541EAEC
:102F9000045170BD41F480114FF0000E013C90E6E9
:102FA00045EA060E8DE60CEA135594EA0C0F08BFAD
:102FB00095EA0C0F3FF43BAF94EA0C0F0AD150EAAC
:102FC00001347FF434AF95EA0C0F7FF425AF10463F
:102FD00019462CE795EA0C0F06D152EA03353FF467
:102FE000FDAE1046194622E750EA410618BF52EAE4
:102FF00043067FF4C5AE50EA41047FF40DAF52EAB8
:1030000043057FF4EBAE12E700210A2200F0D2B8AC
:1030100008B5074B044613B10021AFF30080054B00
:103020001868836A03B19847204600F0D1F800BFC2
:1030300000000000AC3200000E4B70B51E460E4C76
:103040000025E41AA410A54204D056F8253098476C
:103050000135F8E700F0BEF8084B094C1E46E41AAB
:10306000A4100025A54204D056F825309847013514
:10307000F8E770BD74000020740000207400002088
:103080007800002003460244934202D003F8011B5B
:10309000FAE7704710F8012B11F8013B012A28BF0D
:1030A0009A42F7D0D01A70472DE9F0470F46404CAE
:1030B000D4F800903D4615F801EB09EB0E04667854
:1030C00006F0080404F0FF060CB12F46F2E7744640
:1030D0002D2C03D1BD1C7C78012603E02B2C04BFD2
:1030E0007C78BD1C13B1102B0AD15AE0302C56D17C
:1030F0002C7804F0DF04582C4CD16C781023023566
:10310000002E14BF4FF000486FF00048B8FBF3FAF0
:103110000027BE4603FB1A8809EB040C9CF801C08B
:103120001CF0040F01D0303C0BE01CF0030C1BD052
:10313000BCF1010F0CBF4FF0370C4FF0570CCCEB2C
:1031400004049C4210DAB7F1FF3F0AD0D64506D8F6
:1031500001D1444503DC03FB0E4E012701E04FF093
:10316000FF3715F8014BD7E77C1C73460AD1002EB8
:103170004FF0220114BF4FF000436FF00043016095
:103180002AB911E00EB1CEF100036AB107B1691E90
:10319000116009E03024002BB2D10823B0E70A23E4
:1031A000AEE7302CACD1A3E71846BDE8F08700BFEE
:1031B0007000002030B505460C461346034A2946E8
:1031C00010682246BDE83040FFF76EBF6C0000205B
:1031D000FEE700BFF8B500BFF8BC08BC9E467047CC
:1031E000F8B500BFF8BC08BC9E467047050000005B
:1031F0000000000000C201000005000000100000F7
:10320000000000003E3E000048656C7000000000B9
:103210004B454B005A4F4C44000000005049524F60
:103220005300000052535A494E000000544F524F71
:103230004C000000414E494D31000000414E494DC7
:10324000320000004C4544535A494E004563686FB4
:103250003A000000506172616E63736F6B3A000058
:103260005772697465205465787400004C454400B9
:10327000536574204C454420302030005365742041
:103280004C45442031203100536574204C45442086
:1032900031203000476574204C4544203000000048
:1032A000476574204C454420310043000C00002049
:1032B0000020202020202020202028282828282006
:1032C00020202020202020202020202020202020FE
:1032D0002088101010101010101010101010101066
:1032E0001004040404040404040404101010101056
:1032F0001010414141414141010101010101010120
:103300000101010101010101010101011010101071
:1033100010104242424242420202020202020202F1
:103320000202020202020202020202021010101045
:10333000200000000000000000000000000000006D
:10334000000000000000000000000000000000007D
:10335000000000000000000000000000000000006D
:10336000000000000000000000000000000000005D
:10337000000000000000000000000000000000004D
:10338000000000000000000000000000000000003D
:10339000000000000000000000000000000000002D
:1033A000000000000000000000000000000000001D
:1033B000000000001000000000000000017A520030
:1033C000027C0E011B0C0D00100000001800000014
:1033D000C4FCFFFF1400000000000000000000001B
:0833E00058CDFF7F0100000041
:1033E800006CDC0200800000809FD5000000000017
:1033F80000000000000000000000000000000000C5
:10340800000000000000000000000000AA320000D8
:1034180000000000000000000000000000000000A4
:103428000000000000000000000000000000000094
:103438000000000000000000000000000000000084
:103448000000000000000000000000000C00002048
:10345800B032000001010000DD00000000000000A3
:04000003000001AD4B
:00000001FF
