S010000054656D616C61626F722E7333374D
S113000000000220AD010000D9010000D901000068
S1130010D9010000D9010000D9010000D901000074
S1130020D9010000D9010000D9010000D901000064
S1130030D9010000D9010000D90100005D140000BD
S1130040D9010000D901000071130000D90100009A
S1130050D9010000D9010000D9010000D901000034
S1130060D9010000D9010000D9010000D901000024
S1130070D9010000D9010000D9010000D901000014
S1130080D9010000D9010000D9010000D901000004
S1130090D9010000D9010000D9010000D9010000F4
S11300A0D9010000D9010000D9010000D9010000E4
S11300B0D9010000D9010000D9010000D9010000D4
S11300C0D9010000D9010000D9010000D9010000C4
S11300D0D9010000D9010000D901000010B5054C78
S11300E0237833B9044B13B10448AFF300800123E0
S11300F0237010BD780000200000000040210000A3
S1130100084B10B51BB108480849AFF300800848F4
S1130110036803B910BD074B002BFBD0BDE81040AA
S1130120184700BF00000000402100007C000020B0
S11301307400002000000000154B002B08BF134B77
S11301409D46A3F5803A00218B460F461348144A76
S1130150121A01F0EAFE0F4B002B00D098470E4B09
S1130160002B00D098470020002104000D000D480A
S1130170002802D00C48AFF3008001F0A5FE200057
S1130180290001F0DDF901F08BFE00BF000008003A
S113019000000220000000000000000078000020A1
S11301A058050020000000000000000006488047B9
S11301B00649074A074B9A42BEBF51F8040B42F85E
S11301C0040BF8E7FFF7B8FF590300004C210000C7
S11301D00000002078000020FEE700BF80B400AFDC
S11301E0044BDB6C1B0EDBB21846BD465DF8047B8A
S11301F0704700BFB081E00F80B582B000AF00F05F
S11302001FF87860074B5B6803F00F031A467B689E
S1130210D3407B60044A7B6813607B6818460837C8
S1130220BD4680BD00800C400800002080B400AFB3
S1130230024B1846BD465DF8047B7047006CDC0237
S113024080B582B000AF334BDB6A03F47053B3F56F
S1130250805F0AD0B3F5005F03D0B3F5006F08D018
S11302600BE02D4B1B687B6047E04FF400437B6041
S113027043E02A4B1B687B603FE0264BDB6803F4BA
S1130280E063B3F5007F1BD0B3F5007F05D8002BE6
S113029024D0B3F5807F16D02BE0B3F5806F09D05E
S11302A0B3F5A06F03D0B3F5407F06D021E01C4B1B
S11302B07B6021E01B4B7B601EE01B4B7B601BE0E3
S11302C01A4B7B6018E0FFF789FF0346122B02D913
S11302D0174B7B6010E0174B7B600DE0FFF77EFF50
S11302E00346122B02D9144B7B6005E0134B7B6051
S11302F002E000237B6000BF00BF064B1B6803F4D1
S1130300E0339B0B01337A68B2FBF3F318460837EA
S1130310BD4680BD00800C40040000200000002089
S1130320003FAB01406F4001809FD500C0D8A700BB
S113033040B56400C0CF6A00804F120040420F00F5
S113034080B400AF034B1B681846BD465DF8047BC0
S1130350704700BF0000002080B400AFBD465DF8C8
S1130360047B704780B400AF4FF400431846BD4689
S11303705DF8047B704700BF80B400AF4FF47A731C
S11303801846BD465DF8047B704700BF80B400AFDB
S1130390034B1B681846BD465DF8047B704700BFDD
S11303A00400002080B487B000AFF860B9607A60C0
S11303B0FB6803F10473DA00BB6813449B007B61A0
S11303C07B697A681A601C37BD465DF8047B704708
S11303D080B485B000AF786039607B6803F1047342
S11303E0DA003B6813449B00FB60FB681B681846FB
S11303F01437BD465DF8047B704700BF80B485B0F8
S113040000AF78607B68002B04D07B68B3F5004FA5
S113041000D800BF7B68B3FA83F3C3F11F03FB600A
S1130420FB6818461437BD465DF8047B704700BF6F
S113043080B400AF044BDB6C1B0EDBB21846BD4628
S11304405DF8047B704700BFB081E00F80B400AF5B
S1130450054BDB6C03F47F031B0CDBB21846BD4673
S11304605DF8047B704700BFB081E00F80B582B0B7
S113047000AFFFF7EBFF03464A2B04D0792B02D0E1
S1130480482B21D022E0144B1B699BB203F03F039D
S11304909BB21B02FB80104B9B6903F0F0039AB2E2
S11304A0FB881343FB800C4BDB6903F0F0031B094F
S11304B09AB2FB881343FB80FB88B3F5017F01D319
S11304C0064B04E0064B02E0054B00E0002318460F
S11304D00837BD4680BD00BFD0FF0FE000366E0177
S11304E00048E80180B584B000AF78600123FB6068
S11304F0FFF7BCFF02467B689A4204D30023FB60EB
S11305000023BB600BE0FFF7B1FF03465A007B6892
S11305109A4202D30123BB6001E00223BB60084876
S11305201E21FA68FFF73EFF0549054B5B6823F47B
S11305308072BB681B0213434B601037BD4680BDFD
S113054000800C4080B582B000AF05481E21FFF743
S11305503FFF78607B6818460837BD4680BD00BF02
S113056000800C4080B582B000AF214B5B6903F47E
S1130570E063B3F5007F1CD0B3F5007F05D8002BF2
S113058025D0B3F5807F1FD02AE0B3F5C06F24D007
S1130590B3F5E06F1ED0B3F5407F21D1FFF748FFDC
S11305A00346122B02D9134B7B601CE0124B7B6079
S11305B019E0FFF73DFF0346122B02D90F4B7B6076
S11305C011E00F4B7B600EE00E4B7B600BE00E4B9B
S11305D07B6008E00D4B7B6005E00D4B7B6002E027
S11305E000237B6000BF7B6818460837BD4680BD8A
S11305F000800C40804F120040420F0040B5640060
S1130600C0CF6A00C0D8A700809FD500406F4001CA
S1130610003FAB0180B582B000AF0D4800F096FA00
S11306200346FB70FB78072B05D0092B07D1FFF796
S113063007FE786006E0FFF795FF786002E000238C
S11306407B6000BF7B6818460837BD4680BD00BF8D
S113065006000C0080B485B000AF78603960284B88
S1130660DB6B002B14BF01230023BB72244B41F628
S11306707132DA63224B5B6803F00703FB60FB68AB
S1130680012B01D9042B02D10023FB7202E00123C8
S1130690FB7200BF7B681B4A934207D9FB7A002B8D
S11306A001D0052300E00423FB6016E07B68154AB3
S11306B093420BD87B68144A934207D9FB7A002BE8
S11306C001D0032300E00123FB6006E0FB7A002B4A
S11306D001D0022300E00023FB600949084B5B685A
S11306E023F00702FB6813434B60BB7A002B02D054
S11306F0034B0022DA631437BD465DF8047B704770
S113070000000C400048E8010024F40080B500AF6C
S1130710FFF78CFD034618460021FFF79BFF80BDC1
S113072080B582B000AF7860396078683968FFF7C7
S113073091FF0837BD4680BD90B585B000AF7860A5
S11307400023BB607B68344A934203D0334A93420C
S113075000D000E000BF786800F0F8F90346FB60C1
S11307607B682D4A934203D02C4A934206D00CE076
S11307702B4B9B6A03F00303FB6006E0284B9B6A48
S113078003F00C039B08FB6000BFFB68032B3AD803
S113079001A252F823F000BFCF070000A907000010
S11307A0B1070000B9070000FFF7DCFDB8602DE0D9
S11307B0FFF7ECFDB86029E0FFF71EFD0446FFF7E4
S11307C0C1FE0346013324FA03F3BB601EE0002399
S11307D0BB607B68104A934203D07B680F4A934204
S11307E010D10F4B9A6A7B680B498B4201D11023BD
S11307F000E0142322FA03F3002B03D0FFF7BCFD1F
S1130800B86003E002E00023BB6000BFBB68184689
S11308101437BD4690BD00BF02001A0003001C003F
S113082000800C4080B483B000AF7860094B5B6DEE
S113083003F00103002B00D006E000BF054B1A6D46
S11308407B681340002BF9D10C37BD465DF8047B5F
S1130850704700BF00800C4080B582B000AF1048E4
S113086000F074F90346FB70FB78032B07D0092BC7
S113087009D0022B0BD1FFF789FD78600AE0FFF75E
S113088071FD786006E0FFF7DBFC786002E000238E
S11308907B6000BF7B6818460837BD4680BD00BF3B
S11308A00723220080B586B000AF78600B46FB704A
S11308B000233B617B681B0A03F00F03013B092BF8
S11308C045D801A252F823F0050900000B090000E5
S11308D0F10800004F0900004F0900001109000051
S11308E01B0900004F0900004F0900002509000002
S11308F0194B7B61194800F03DF803461846FFF791
S1130900F1FD12E0164B7B610FE0164B7B610CE0AE
S1130910154B7B6101233B6107E0144B7B61102382
S11309203B6102E0124B7B6100BF7B681B0B03F051
S11309301F03FB603B69002B02D03869FFF772FF8D
S1130940FB787869F9681A46FFF72CFD00E000BFD0
S11309501837BD4680BD00BF40800C4000430200F4
S113096008800C4044800C4058800C4060800C404F
S113097078800C4090B585B000AF78607B6803F454
S11309807813B3F5B01F00F0AB80B3F5B01F1AD8DD
S1130990B3F5402F00F0BF80B3F5402F08D8B3F56E
S11309A0003F3CD0B3F5802F2DD0002B27D0BEE0E4
S11309B0B3F5801F3CD0B3F5A01F47D0B3F5602F2B
S11309C000F0AD80B3E0B3F5081F00F0AC80B3F5E0
S11309D0081F0AD8B3F5D01F25D0B3F5E01F7AD08D
S11309E0B3F5C01F00F08980A1E0B3F5201F4ED0FD
S11309F0B3F5281F62D0B3F5181F35D097E0FFF781
S1130A001FFCF86096E0FFF71BFCF8604C4B9B68FA
S1130A1003F00F031A46FB68D340FB608AE0FFF73C
S1130A20EBFBF86086E04748FFF786FEF86081E05C
S1130A304448FFF781FEF860414B9B6E03F0F003DE
S1130A401B091A46FB68D340FB6073E03D48FFF77F
S1130A5073FEF8603A4B9B6E03F470631B0A1A46EC
S1130A60FB68D340FB6065E03648FFF765FEF8603D
S1130A70334B9B6E03F440531C0B1020FFF7BEFC5A
S1130A80034623441A46FB68D340FB6052E02D48DA
S1130A90FFF752FEF8602A4B9B6E03F440531B0B86
S1130AA01A46FB68D340FB60254BDB6F03F007035A
S1130AB00133FA68B2FBF3F3FB603BE02148FFF734
S1130AC03BFEF8601E4B9B6E03F003031A46FB6863
S1130AD0D340FB602EE01C48FFF72EFEF86029E0AF
S1130AE01948FFF729FEF860154B1B6F03F0030349
S1130AF01A46FB68D340FB601CE01348FFF71CFE5A
S1130B00F8600F4B1B6F03F030031B091A46FB6898
S1130B10D340FB600EE0FFF77DFDF8600AE0FFF7CD
S1130B2021FDF86006E0FFF797FEF86002E000237D
S1130B30FB6000BFFB6818461437BD4690BD00BF7C
S1130B4000800C4002001A0003001C0080B485B031
S1130B5000AF78600123FB737B6803F00F03BB6075
S1130B60BB68013B062B00F2938001A252F823F0EC
S1130B708D0B0000C30B0000FF0B0000910C000064
S1130B80910C00003B0C00005D0C0000454BDB6A3F
S1130B9003F47053B3F5805F09D0B3F5005F03D05D
S1130BA0B3F5006F06D008E00223FB7308E00323CB
S1130BB0FB7305E00423FB7302E00523FB7300BF12
S1130BC069E0384B9B6A03F00303022B06D0032B26
S1130BD007D0012B08D10323FB730FE00223FB731F
S1130BE00CE00623FB7309E02E4B9B6A03F480336D
S1130BF0002B02D00A23FB7300E000BF4BE0294B1B
S1130C009B6A03F00C03082B06D00C2B07D0042B93
S1130C1008D10323FB730FE00223FB730CE00623CC
S1130C20FB7309E01F4B9B6A03F48013002B02D073
S1130C300A23FB7300E000BF2DE01A4B1B6803F08E
S1130C408053002B03D0B3F1805F03D023E007234C
S1130C50FB7302E00923FB7300BF1CE0114BDB6A4A
S1130C6003F46033B3F5803F08D0B3F5003F08D0F8
S1130C70B3F5004F08D10923FB7308E00223FB738B
S1130C8005E00323FB7302E00123FB7300BF02E0D2
S1130C900023FB7300BFFB7B18461437BD465DF889
S1130CA0047B704700800C4080B588B000AF78604A
S1130CB00B46FB700323FB610323FB7600233B619C
S1130CC07B6803F00F03FB60FB68013B062B00F21B
S1130CD0288101A252F823F0F50C0000CB0D00008E
S1130CE0CB0D0000230F0000230F0000910E000025
S1130CF0BB0E0000FB78023B082B00F2148101A21A
S1130D0052F823F0290D0000330D00003D0D0000C2
S1130D107F0D0000270F0000270F0000270F0000A1
S1130D20270F0000270F00000423FB610023FB763C
S1130D3031E00323FB610123FB762CE00223FB61FA
S1130D400223FB76FFF792FB034601331846FFF7B5
S1130D50C9FBFFF7F5FA0246764B9A4206D9764A62
S1130D60754B1B6843F06003136014E0724A724BC6
S1130D701B6823F0600343F0200313600BE001239E
S1130D80FB610323FB76FFF771FB0346013318462F
S1130D90FFF7A8FB00BFFB7E18460121012200F0EB
S1130DA0D1F8FFF7B3FC644AFB6953626348FFF769
S1130DB0E1FD03461846FFF795FBFFF71DFAB860FF
S1130DC0B8680021FFF7ACFCB0E0FB78013B092BCD
S1130DD000F2AB8001A252F823F000BF050E000020
S1130DE00B0E00001B0E00002B0F00002B0F000049
S1130DF02B0E00002B0F00002B0F00002B0F000008
S1130E00470E000000237B6122E000200121012223
S1130E1000F098F802237B611AE0012001210122ED
S1130E2000F090F801237B6112E0FFF7E5F9B86068
S1130E30B868FFF757FB424804210122FFF7B2FAD2
S1130E4003237B6104E000237B6101233B6100BF3A
S1130E50FB68022B0DD13849374B9B6A23F480334E
S1130E6023F003037A691A433B691B0413438B621F
S1130E705CE03149304B9B6A23F4801323F00C036C
S1130E807A6992001A433B691B0513438B624DE058
S1130E90FB78072B02D0092B07D047E0264A264BC4
S1130EA01B6823F08053136006E0234A224B1B681F
S1130EB043F08053136000BF38E0FB78032B14D059
S1130EC0092B22D0022B00D030E000200121012286
S1130ED000F038F8184B40225A6200BF164BDB6A08
S1130EE003F48033002BF9D01AE001200121012200
S1130EF000F028F8104B60225A6200BF0E4BDB6AE8
S1130F0003F40033002BF9D00AE00B4B20225A6281
S1130F1000BF094BDB6A03F40043002BF9D000BF88
S1130F2004E000BF02E000BF00E000BF2037BD4680
S1130F3080BD00BF0048E80100800C40004302006F
S1130F4040800C4080B586B000AF0346FB710B4671
S1130F50BB7113467B71FB79042B48D801A252F86C
S1130F6023F000BFB10F0000A30F0000870F0000A3
S1130F70790F0000950F000001233B610223FB6001
S1130F8001237B611DE004233B610823FB600323F1
S1130F907B6116E010233B612023FB6005237B610A
S1130FA00FE040233B618023FB6007237B6108E063
S1130FB04FF480733B614FF40073FB6009237B6142
S1130FC000BFBB79002B0ED00B4A3B6913627B79BF
S1130FD0002B0DD000BF09487969FFF7F9F90346E2
S1130FE0002BF8D004E0044AFB68136200E000BF61
S1130FF01837BD4680BD00BF00800C402C800C40DB
S113100080B483B000AF03463960FB71FB79002BD9
S11310100DD0FB79012B0AD0FB79022B07D0FB7989
S1131020032B04D0FB79042B01D0FB79052B094950
S1131030FA793B68012000FA03F318461346DB00F3
S113104013449B000B44103358600C37BD465DF8C5
S1131050047B70470060004080B483B000AF034657
S11310603960FB71FB79002B0DD0FB79012B0AD081
S1131070FB79022B07D0FB79032B04D0FB79042BDB
S113108001D0FB79052B0949FA793B68012000FA64
S113109003F318461346DB0013449B000B44103340
S11310A018600C37BD465DF8047B70470060004053
S11310B090B585B000AFB9607B600346FB731346FF
S11310C0BB73FB7B002B0DD0FB7B012B0AD0FB7B7E
S11310D0022B07D0FB7B032B04D0FB7B042B01D01A
S11310E0FB7B052BBB7B002B0DD07B68002B05D035
S11310F0FB7B1846B968FFF7AFFF04E0FB7B18469B
S1131100B968FFF77DFFBB68072B1CD82A4CFA7B14
S11311102948F97B0B46DB000B449B0003445968C8
S1131120BB689B0018460F238340DB430B40B97B0D
S1131130B8688000814019431346DB0013449B00C8
S11311402344596024E01C4CFA7B1B48F97B0B4672
S1131150DB000B449B00034408331968BB6803F1AC
S11311608043083B9B0018460F238340DB43194010
S1131170B87BBB6803F18043083B9B0000FA03F390
S113118019431346DB0013449B00234408331960BE
S1131190BB7B002B0DD17B68002B05D0FB7B184655
S11311A0B968FFF759FF04E0FB7B1846B968FFF7FD
S11311B027FF1437BD4690BD0060004080B485B061
S11311C000AF7860194B5B69DBB203F00F03DBB24D
S11311D09B00FB73154B1B6903F0C0039B09DAB238
S11311E0FB7B1343FB737B68FA7B9A700F4B1B6981
S11311F0DBB203F03F03DAB27B685A700B4B9B6996
S1131200DBB223F00F03FB73084BDB6903F0F0033D
S11312101B09DAB2FB7B1343FB737B68FA7B1A70FE
S11312201437BD465DF8047B704700BFD0FF0FE064
S113123080B483B000AF03463960FB7197F907307F
S1131240002B0BDA0D49FB7903F00F03043B3A68DA
S1131250D2B25201D2B20B441A7609E0084997F986
S113126007303A68D2B25201D2B20B4483F8002359
S11312700C37BD465DF8047B704700BF00ED00E00D
S113128000E100E080B582B000AF78607B68013B8C
S1131290B3F1807F01D301230FE00A4A7B68013B4D
S11312A053604FF0FF300721FFF7C2FF054B0022C8
S11312B09A60044B07221A60002318460837BD467B
S11312C080BD00BF10E000E080B400AF044BDB6CD5
S11312D01B0EDBB21846BD465DF8047B704700BFA9
S11312E0B081E00F80B582B000AFFFF7EDFF034699
S11312F0FB713B1D1846FFF761FFFB790F2B0AD9E1
S11313003B79022B07D9054A044B1B6823F0500391
S113131043F0100313600837BD4680BDC0800C4005
S113132080B483B000AF786039607B683A689A61B2
S11313300C37BD465DF8047B704700BF80B483B0B2
S113134000AF78607B685B6A18460C37BD465DF871
S1131350047B704780B483B000AF78600B46FB70A9
S1131360FA787B685A600C37BD465DF8047B704799
S113137098B500AF2648FFF7E1FF0246254B1A60F7
S113138023480121FFF7E6FF234B1B68214A12681B
S1131390224941F82320204B1C681E4B1B68184629
S11313A000F0F6FA02460B461046194616A3D3E996
S11313B0002300F063FB02460B461948E100014498
S11313C0C1E90023144B1B68632B03D1124B002289
S11313D01A6004E0104B1B6801330F4A1360114874
S11313E00121FFF79DFF104B1B6801330E4A136068
S11313F00D4B1B6841F28832934202D90A4B0022FA
S11314001A6098BDAFF300806666666666664A3FFA
S1131410002000409800002094000020C403002015
S1131420A000002000000140C003002080B500AFF0
S1131430022001210122FFF785FD11200421FFF77D
S113144033FC05480121FFF72DFA02200421042270
S11314500023FFF72DFE80BD00D2040080B400AF4E
S1131460044B1B680133034A1360BD465DF8047BDB
S1131470704700BF5405002080B483B000AF002340
S11314807B6003E000BF7B6801337B607B68B3F55E
S11314902F6FF7DB0C37BD465DF8047B704700BF48
S11314A080B483B000AF01237B603EE001233B6046
S11314B035E0224B10229A6500BF00BF00BF00BF79
S11314C000BF00BF00BF00BF00BF00BF00BF00BF20
S11314D000BF1A4B1022DA6500BF00BF00BF00BF77
S11314E000BF00BF00BF00BF00BF00BF00BF00BF00
S11314F000BF00BF00BF00BF00BF00BF00BF00BFF0
S113150000BF00BF00BF00BF00BF00BF00BF00BFDF
S113151000BF00BF00BF00BF3B6801333B603B68B6
S1131520182BC6DD7B6801337B607B68052BBDDD32
S11315300C37BD465DF8047B704700BF0060004077
S113154080B5FAB000AF3B466C4A19464FF4F073CD
S1131550084611461A4600F0DDFCFFF7C3FE684852
S1131560FFF708FA0246674BA3FB02239B091846C0
S1131570FFF788FE0346002B00D0FEE7FFF756FF77
S1131580614B1022DA65FFF777FFFFF789FFFFF75A
S113159073FFFFF785FFFFF76FFFFFF76DFFFFF79F
S11315A06BFFFFF769FFFFF767FF0023C7F8E4311C
S11315B085E00023C7F8E03178E03946D7F8E42124
S11315C013465B001344DB00D7F8E021134451F8C1
S11315D02330012B32D14C4B10229A6500BF00BF3F
S11315E000BF00BF00BF00BF00BF00BF00BF00BFFF
S11315F000BF00BF00BF00BF00BF00BF00BF00BFEF
S113160000BF00BF00BF00BF00BF00BF00BF00BFDE
S113161000BF00BF00BF00BF00BF00BF3A4B102295
S1131620DA6500BF00BF00BF00BF00BF00BF00BF3E
S113163000BF00BF00BF00BF00BF32E0324B10222A
S11316409A6500BF00BF00BF00BF00BF00BF00BF5E
S113165000BF00BF00BF00BF00BF00BF2A4B102265
S1131660DA6500BF00BF00BF00BF00BF00BF00BFFE
S113167000BF00BF00BF00BF00BF00BF00BF00BF6E
S113168000BF00BF00BF00BF00BF00BF00BF00BF5E
S113169000BF00BF00BF00BF00BF00BF00BF00BF4E
S11316A000BFD7F8E0310133C7F8E031D7F8E031B3
S11316B0172B82DDD7F8E4310133C7F8E431D7F8CA
S11316C0E431042B7FF775AFD7F8E431052B13D140
S11316D0FFF7E6FEFFF7D0FEFFF7CEFEFFF7CCFEE6
S11316E0FFF7CAFEFFF7C8FEFFF7C6FEFFF7C4FE0A
S11316F0FFF7C2FEFFF7C0FE4BE700BF581F000014
S113170050000200D34D62100060004081F000419F
S113171002E000BF83F0004330B54FEA41044FEAD2
S1131720430594EA050F08BF90EA020F1FBF54EA6D
S1131730000C55EA020C7FEA645C7FEA655C00F009
S1131740E2804FEA5454D4EB5555B8BF6D420CDDDA
S11317502C4480EA020281EA030382EA000083EA5D
S1131760010180EA020281EA0303362D88BF30BDFD
S113177011F0004F4FEA01314FF4801C4CEA113153
S113178002D0404261EB410113F0004F4FEA0333B2
S11317904CEA133302D0524263EB430394EA050F3D
S11317A000F0A780A4F10104D5F1200E0DDB02FAAC
S11317B00EFC22FA05F2801841F1000103FA0EF240
S11317C0801843FA05F359410EE0A5F120050EF106
S11317D0200E012A03FA0EFC28BF4CF0020C43FA37
S11317E005F3C01851EBE37101F0004507D54FF044
S11317F0000EDCF1000C7EEB00006EEB0101B1F594
S1131800801F1BD3B1F5001F0CD349085FEA3000D9
S11318104FEA3C0C04F101044FEA445212F5800FE4
S113182080F09A80BCF1004F08BF5FEA500C50F181
S1131830000041EB045141EA050130BD5FEA4C0C64
S1131840404141EB010111F4801FA4F10104E9D1ED
S113185091F0000F04BF01460020B1FA81F308BFE4
S11318602033A3F10B03B3F120020CDA0C3208DDB0
S113187002F1140CC2F10C0201FA0CF021FA02F18B
S11318800CE002F11402D8BFC2F1200C01FA02F1FB
S113189020FA0CFCDCBF41EA0C019040E41AA2BF20
S11318A001EB0451294330BD6FEA04041F3C1CDAE8
S11318B00C340EDC04F11404C4F1200220FA04F008
S11318C001FA02F340EA030021FA04F345EA0301B2
S11318D030BDC4F10C04C4F1200220FA02F001FA74
S11318E004F340EA0300294630BD21FA04F02946F6
S11318F030BD94F0000F83F4801306BF81F480118F
S11319000134013D4EE77FEA645C18BF7FEA655C01
S113191029D094EA050F08BF90EA020F05D054EAD3
S1131920000C04BF1946104630BD91EA030F1EBFD8
S11319300021002030BD5FEA545C05D140004941DC
S113194028BF41F0004130BD14F580043CBF01F5CF
S1131950801130BD01F0004545F0FE4141F47001B5
S11319604FF0000030BD7FEA645C1ABF1946104690
S11319707FEA655C1CBF0B46024650EA013406BF91
S113198052EA033591EA030F41F4002130BD00BF50
S113199090F0000F04BF0021704730B54FF480640D
S11319A004F132044FF000054FF0000150E700BF8E
S11319B090F0000F04BF0021704730B54FF48064ED
S11319C004F1320410F0004548BF40424FF00001DA
S11319D03EE700BF42004FEAE2014FEA31014FEA1D
S11319E002701FBF12F07F4393F07F4F81F060516C
S11319F0704792F0000F14BF93F07F4F704730B5DB
S1131A004FF4607401F0004521F0004120E700BF6D
S1131A1050EA010208BF704730B54FF000050AE0F4
S1131A2050EA010208BF704730B511F0004502D5F5
S1131A30404261EB41014FF4806404F132045FEAF7
S1131A40915C3FF4DCAE4FF003025FEADC0C18BF9C
S1131A5003325FEADC0C18BF033202EBDC02C2F192
S1131A60200300FA03FC20FA02F001FA03FE40EA24
S1131A700E0021FA02F11444C1E600BF70B54FF024
S1131A80FF0C4CF4E06C1CEA11541DBF1CEA135506
S1131A9094EA0C0F95EA0C0F00F0DEF82C4481EA6E
S1131AA0030621EA4C5123EA4C5350EA013518BF8E
S1131AB052EA033541F4801143F4801338D0A0FB7B
S1131AC002CE4FF00005E1FB02E506F00042E0FB28
S1131AD003E54FF00006E1FB03569CF0000F18BF2E
S1131AE04EF0010EA4F1FF04B6F5007F64F54074D6
S1131AF004D25FEA4E0E6D4146EB060642EAC62169
S1131B0041EA55514FEAC52040EA5E504FEACE2ED5
S1131B10B4F1FD0C88BFBCF5E06F1ED8BEF1004FD8
S1131B2008BF5FEA500E50F1000041EB045170BD54
S1131B3006F0004646EA010140EA020081EA030198
S1131B40B4EB5C04C2BFD4EB0C0541EA045170BD94
S1131B5041F480114FF0000E013C00F3AB8014F10E
S1131B60360FDEBF002001F0004170BDC4F1000457
S1131B70203C35DA0C341BDC04F11404C4F12005D8
S1131B8000FA05F320FA04F001FA05F240EA020033
S1131B9001F0004221F0004110EBD37021FA04F669
S1131BA042EB06015EEA430E08BF20EAD37070BD23
S1131BB0C4F10C04C4F1200500FA04F320FA05F082
S1131BC001FA04F240EA020001F0004110EBD37084
S1131BD041F100015EEA430E08BF20EAD37070BDF4
S1131BE0C4F1200500FA05F24EEA020E20FA04F3CD
S1131BF001FA05F243EA020321FA04F001F000417C
S1131C0021FA04F220EA020000EBD3705EEA430EEC
S1131C1008BF20EAD37070BD94F0000F0FD101F01B
S1131C200046400041EB010111F4801F08BF013C54
S1131C30F7D041EA060195F0000F18BF704703F092
S1131C400046520043EB030313F4801F08BF013D19
S1131C50F7D043EA0603704794EA0C0F0CEA1355D5
S1131C6018BF95EA0C0F0CD050EA410618BF52EA8F
S1131C704306D1D181EA030101F000414FF0000095
S1131C8070BD50EA410606BF1046194652EA4306A3
S1131C9019D094EA0C0F02D150EA013613D195EA17
S1131CA00C0F05D152EA03361CBF104619460AD15F
S1131CB081EA030101F0004141F0FE4141F4700169
S1131CC04FF0000070BD41F0FE4141F4780170BD59
S1131CD070B54FF0FF0C4CF4E06C1CEA11541DBFBE
S1131CE01CEA135594EA0C0F95EA0C0F00F0A7F8C0
S1131CF0A4EB050481EA030E52EA03354FEA0131ED
S1131D0000F088804FEA03334FF0805545EA1313FF
S1131D1043EA12634FEA022245EA111545EA1065C7
S1131D204FEA00260EF000419D4208BF964244F15E
S1131D30FD0404F5407402D25B084FEA3202B61A7D
S1131D4065EB03055B084FEA32024FF480104FF451
S1131D50002CB6EB020E75EB030E22BFB61A7546C5
S1131D6040EA0C005B084FEA3202B6EB020E75EB58
S1131D70030E22BFB61A754640EA5C005B084FEAC0
S1131D803202B6EB020E75EB030E22BFB61A75468D
S1131D9040EA9C005B084FEA3202B6EB020E75EB98
S1131DA0030E22BFB61A754640EADC0055EA060E59
S1131DB018D04FEA051545EA16754FEA06164FEA9C
S1131DC0C30343EA52734FEAC2025FEA1C1CC0D148
S1131DD011F4801F0BD141EA00014FF000004FF0D5
S1131DE0004CB6E711F4801F04BF01430020B4F196
S1131DF0FD0C88BFBCF5E06F3FF6AFAEB5EB030C4E
S1131E0004BFB6EB020C5FEA500C50F1000041EB4A
S1131E10045170BD0EF0004E4EEA113114EB5C0417
S1131E20C2BFD4EB0C0541EA045170BD41F48011EA
S1131E304FF0000E013C90E645EA060E8DE60CEAF2
S1131E40135594EA0C0F08BF95EA0C0F3FF43BAF0F
S1131E5094EA0C0F0AD150EA01347FF434AF95EAC6
S1131E600C0F7FF425AF104619462CE795EA0C0FAA
S1131E7006D152EA03353FF4FDAE1046194622E777
S1131E8050EA410618BF52EA43067FF4C5AE50EA51
S1131E9041047FF40DAF52EA43057FF4EBAE12E741
S1131EA008B5074B044613B10021AFF30080054B7E
S1131EB01868836A03B19847204600F03FF800BFD2
S1131EC0000000003C2100000E4B70B51E460E4C75
S1131ED00025E41AA410A54204D056F825309847EA
S1131EE00135F8E700F02CF8084B094C1E46E41ABB
S1131EF0A4100025A54204D056F825309847013592
S1131F00F8E770BD6C0000206C0000206C0000201D
S1131F107000002010B5431E0A44914204D011F809
S1131F20014B03F8014FF8E710BD03460244934206
S1131F3002D003F8011BFAE770470000FEE700BF78
S1131F40F8B500BFF8BC08BC9E467047F8B500BFA2
S1131F50F8BC08BC9E467047010000000100000068
S1131F600100000001000000010000000100000069
S1131F70010000000100000000000000000000005B
S1131F80000000000000000000000000000000004D
S1131F90000000000000000000000000000000003D
S1131FA0000000000000000000000000000000002D
S1131FB0000000000000000001000000010000001B
S1131FC00100000001000000010000000100000009
S1131FD001000000010000000000000000000000FB
S1131FE000000000000000000000000000000000ED
S1131FF000000000000000000000000000000000DD
S113200000000000000000000000000000000000CC
S113201000000000000000000100000001000000BA
S113202001000000010000000100000001000000A8
S1132030010000000100000000000000000000009A
S1132040000000000000000000000000000000008C
S1132050000000000000000000000000000000007C
S1132060000000000000000000000000000000006C
S1132070000000000000000001000000010000005A
S11320800100000001000000010000000100000048
S1132090010000000100000000000000000000003A
S11320A0000000000000000000000000000000002C
S11320B0000000000000000000000000000000001C
S11320C0000000000000000000000000000000000C
S11320D000000000000000000100000001000000FA
S11320E001000000010000000100000001000000E8
S11320F001000000010000000000000000000000DA
S113210000000000000000000000000000000000CB
S113211000000000000000000000000000000000BB
S113212000000000000000000000000000000000AB
S11321300000000000000000430000000C0000202C
S10721400000000097
S10B2144F4DFFF7F010000003D
S113214C006CDC0200800000809FD50000000000C1
S113215C000000000000000000000000000000006F
S113216C0000000000000000000000003821000006
S113217C000000000000000000000000000000004F
S113218C000000000000000000000000000000003F
S113219C000000000000000000000000000000002F
S11321AC000000000000000000000000010100001D
S10B21BCDD000000000000003A
S90301AD4E
