:1000000000000220AD010000D9010000D90100006C
:10001000D9010000D9010000D9010000D901000078
:10002000D9010000D9010000D9010000D901000068
:10003000D9010000D9010000D9010000850E00009F
:10004000D9010000D9010000D90D0000D90100003C
:10005000D9010000D9010000D9010000D901000038
:10006000D9010000D9010000D9010000D901000028
:10007000D9010000D9010000D9010000D901000018
:10008000D9010000D9010000D9010000D901000008
:10009000D9010000D9010000D9010000D9010000F8
:1000A000D9010000D9010000D9010000D9010000E8
:1000B000D9010000D9010000D9010000D9010000D8
:1000C000D9010000D9010000D9010000D9010000C8
:1000D000D9010000D9010000D901000010B5054C7C
:1000E000237833B9044B13B10448AFF300800123E4
:1000F000237010BD78000020000000003C1B0000B1
:10010000084B10B51BB108480849AFF300800848F8
:10011000036803B910BD074B002BFBD0BDE81040AE
:10012000184700BF000000003C1B00007C000020BE
:100130007400002000000000154B002B08BF134B7B
:100140009D46A3F5803A00218B460F461348144A7A
:10015000121A01F0E8FB0F4B002B00D098470E4B12
:10016000002B00D098470020002104000D000D480E
:10017000002802D00C48AFF3008001F0A3FB200060
:10018000290000F0C1FE01F089FB00BF000008005B
:1001900000000220000000000000000078000020A5
:1001A00058050020000000000000000006488047BD
:1001B0000649074A074B9A42BEBF51F8040B42F862
:1001C000040BF8E7FFF7B8FF9D030000481B000091
:1001D0000000002078000020FEE700BF294AD36A13
:1001E00003F47053B3F5805F2AD0B3F5005F24D0D9
:1001F000B3F5006F11D0D36803F4E063B3F5007F6B
:100200003DD020D9B3F5806F37D0B3F5A06F32D091
:10021000B3F5407F24D0002301E01B4B1B68194A33
:100220001A4910685268C0F382300130B3FBF0F015
:1002300002F00F03D84008607047154B1B68EEE7CB
:100240004FF40043EBE76BB1B3F5807FE3D1114B83
:10025000114AD86C114BB0F1985F28BF1346DEE706
:100260000F4BDCE70B4B0F4AD86C0F4BB0F1985F8C
:1002700028BF1346D3E70D4BD1E70D4BCFE70D4B0E
:10028000CDE700BF00800C400400002008000020E3
:1002900000000020B081E00F40B56400C0CF6A00CC
:1002A000809FD500804F120040420F00003FAB01FD
:1002B000406F4001C0D8A70000487047006CDC02C6
:1002C000274AD36A03F47053B3F5805F24D0B3F5A3
:1002D000005F1ED0B3F5006F11D0D36803F4E06364
:1002E000B3F5007F39D01AD9B3F5806F33D0B3F5A9
:1002F000A06F2ED0B3F5407F1FD0002001E0194B36
:100300001868174B1B68C3F382330133B0FBF3F05B
:100310007047154B1868F4E74FF40040F1E773B1EC
:10032000B3F5807FE9D1114A114BD06C114AB0F17D
:10033000985F2CBF18461046E3E70F48E1E70B4AE9
:100340000E4BD06C0E4AB0F1985F2CBF1846104689
:10035000D7E70C48D5E70C48D3E70C48D1E700BFF6
:1003600000800C400400002000000020B081E00F5D
:1003700040B56400C0CF6A00809FD500804F120056
:1003800040420F00003FAB01406F4001C0D8A700C2
:10039000014B1868704700BF04000020704700BF81
:1003A0004FF40040704700BF4FF47A70704700BFB1
:1003B000014B1868704700BF000000202E4B30B47E
:1003C000DB6CC3F307434A2B22D0792B20D02B4A76
:1003D000482B0CBF1346002398420BD8002003463D
:1003E00030BC2749274A0B60536823F480731843B5
:1003F00050607047204BDB6CC3F307434A2B25D07A
:10040000792B23D0482B18D04FF400700123E7E755
:100410001D4C1E4A2369A169E46903F03F05C4F33A
:10042000031343EA052301F0F001144C0B43B3F529
:10043000017F2CBF13462346CEE7154B83422CBFCA
:100440004FF480704FF400700123C9E70E4C114A3D
:100450002369A169E46903F03F05C4F3031343EA88
:10046000052301F0F0010A4C0B43B3F5017F2CBFCB
:1004700013462346E2E700BFB081E00F0048E801E1
:100480007800904300800C40D0FF0FE000366E01F2
:100490000090D003006CDC0208B500F00F03013BB4
:1004A000062B65D8DFE803F025394764645504005E
:1004B000464BDB6A03F46033B3F5803F23D0B3F5DA
:1004C000003F6DD0B3F5004F4AD0414B984262D007
:1004D000404B984209D13D4B9B6AC3F38103022BE9
:1004E00017D0032B62D0012B48D1BDE80840FFF79D
:1004F00057BF364BDB6A03F47053B3F5805F4FD0C0
:10050000B3F5005F2CD1324B984244D0314B984226
:10051000E1D0BDE80840FFF74BBF2C4A936A03F0D7
:100520000303022BEFD0032B1AD0012B38D0936A90
:10053000DA0315D4C9E7254A936A03F00C03082BA4
:10054000E1D00C2B0CD0042B2AD0936ADB0207D409
:10055000BBE71E4B1B6813F0805301D0002BB4D0B7
:100560001B4B984217D01B4B9842B4D0002008BDBB
:10057000174B98420FD0174B9842ACD0144B98426F
:100580001BD0144B9842F1D1104B14209B6A33FAC4
:1005900000F016D108BD0D4B9B6A03F003039EE7E4
:1005A0000B4B9842F7D00B4B984294D0FFF716FEB6
:1005B000094B1B680133D84008BD044B10209B6ACF
:1005C000E5E7BDE80840FFF7EFBE00BF00800C4044
:1005D00002001A0003001C007800904300F00F0096
:1005E0000138062852D8DFE800F01424355151466E
:1005F00004002B4BDB6A03F46033B3F5803F49D032
:10060000B3F5003F44D0B3F5004F0CBF09200120E3
:100610007047234BDB6A03F47053B3F5805F37D028
:10062000B3F5005F36D0B3F5006F0CBF0420052092
:1006300070471B4B986A00F00300022829D003285A
:100640002AD0012824D09B6A13F4803F0CBF0120DC
:100650000A207047124A936A03F00C03082B19D042
:100660000C2B19D0042B13D0936A13F4801F0CBFEA
:1006700001200A2070470A4B1B6813F080530DD0ED
:10068000B3F1805F0CBF0920012070470020704744
:1006900003207047022070470620704707207047EC
:1006A00000800C4000F47810B0F5B01F08B500F0E1
:1006B00093800ED8B0F5402F7ED021D8B0F5003F02
:1006C00076D0B0F5802F00F0B08000287BD00020DD
:1006D00008BDB0F5081F00F09A8039D8B0F5D01FDA
:1006E00061D0B0F5E01F72D0B0F5C01FEFD1644803
:1006F000FFF7D2FE634B1B6FC3F30113D84008BD55
:10070000B0F5801F37D0B0F5A01F6ED0B0F5602FC8
:10071000DDD15C4B5B6903F4E063B3F5007F00F06F
:100720009E8040F28A80B3F5C06F00F0A280B3F5DE
:10073000E06F00F0A080B3F5407FC8D1524A534B20
:10074000D06C534AB0F1985F34BF1846104608BDCC
:10075000B0F5201F18D0B0F5281F4FD0B0F5181FE6
:10076000B5D14C48FFF798FE464B9B6EC3F301335F
:100770000433D84008BD4748FFF78EFE414B9B6EBF
:10078000C3F30313D84008BD4248FFF785FE3D4B35
:100790009A6EDB6FC2F3013203F00703D0400133DE
:1007A000B0FBF3F008BD3B48BDE80840FFF774BE5E
:1007B000BDE80840FFF712BD324A136813F08053BA
:1007C00046D0002B83D0BDE80840FFF779BD2C4808
:1007D000BDE80840FFF760BE2948FFF75DFE294BE2
:1007E0001B6F03F00303D84008BD2A48FFF754FEEF
:1007F000244B9B6EC3F30323D84008BD2548FFF765
:100800004BFE204B9B6E03F00303D84008BD2248EB
:10081000FFF7E4FE032817D00928D4D002287FF47C
:1008200056AFBDE80840FFF7C3BDFFF749FD154BC4
:100830009B6803F00F03D84008BDF3B1B3F5807F88
:100840007FF445AF154808BDBDE80840FFF7A8BDD7
:10085000536903F4E063B3F5007F7FF462AF0A4AA3
:100860000F4BD06C0F4AB0F1985F34BF184610465A
:1008700008BD0D4808BD0D4808BD0D4808BD00BFA6
:1008800003001C0000800C40B081E00F40420F00CC
:10089000804F120002001A0007232200C0D8A700D0
:1008A000C0CF6A0040B56400003FAB01406F40011B
:1008B000809FD50030B5C0F30323013B83B00446CD
:1008C000092B0CD8DFE803F01C1E200B0B0D190BB5
:1008D0000B05114DC4F304342C44A400216003B073
:1008E00030BD0E4D01200E4AC4F30434536DDB07B6
:1008F000F2D4136D1842FCD1EEE70A4D1020F2E756
:10090000094DE7E7094DE5E70191FFF767FCFFF7C0
:1009100055FD074D0199DDE7C003E410C002E41066
:1009200000800C400003E4104000E4102002E410BA
:100930000002E41038B500F00F04631E062B0ED839
:10094000DFE803F02E14140D0D0E0400032900F04F
:100950008780092900F0B980022900F0908038BD15
:10096000072926D0092900F09A8038BD01390929C4
:10097000F5D801A353F821F0610B00007D0B0000B6
:10098000AB0B00005F0900005F090000950B000041
:100990005F0900005F0900005F090000C10B000053
:1009A00002390329DBD8DFE811F0BA000A00980009
:1009B000BF00A74A136823F08053136038BDA54ACF
:1009C00003244023A2490B621368002BFCD0FFF7DD
:1009D00073FC41F67132A04BDD6BDA635B6803F0A8
:1009E0000703042B06D8012202FA03F313F0130FB6
:1009F00040F0AC80994B984257D9052296494B68F4
:100A000023F0070313434B600DB10023CB63904BDE
:100A100093485C62FFF746FEFFF7D0FCFFF7DEFB72
:100A200041F671328C4BDC6BDA635B6803F00703D1
:100A3000042B06D8012202FA03F313F0130F40F03F
:100A40008A80864B984238D9052283494B6823F027
:100A5000070313434B60002C81D00023CB6338BDC8
:100A60007B4B40217B4A19621368002BFCD0784BEA
:100A700060211A465962D36A9903FCD538BD744B7C
:100A80004FF48071774A19621368002BFCD0704BC9
:100A900040211A465962D36AD803FCD538BD6C4A46
:100AA000136843F08053136038BD6F4B6F4A0344A3
:100AB00093428CBF02220322A0E76B4B6B4A034494
:100AC00093428CBF02220322BFE7614B20211A46CA
:100AD0005962D36A1B04FCD538BD654BDB6CC3F38C
:100AE00007434A2B00F08C80792B00F08980482B3B
:100AF000604818BF0120FFF761FCFFF749FC544A2A
:100B0000564B02249842136896BF23F0600343F0CB
:100B1000600343F020031360574A042352E7514A0D
:100B200004244FF480734DE7514BDB6CC3F3074350
:100B30004A2B79D0792B77D0482B4E4818BF01200B
:100B40000124FFF73BFC23464C4A3BE7434B9842CA
:100B500046D9042252E7414B984249D9042274E70E
:100B6000002003460146022C30D039498A6A22F41B
:100B7000801323F00C0303438B6238BD344B4FF4D6
:100B80008071384A19621368002BFCD008200023BA
:100B90000221E8E7FFF722FBFFF710FC384B0122A8
:100BA0001A600C2000230321DDE7294B4021294A4C
:100BB00019621368002BFCD0042000230121D2E726
:100BC0004FF480104FF480330021CCE720481943C4
:100BD000826A22F4803323F003030B43836238BD1F
:100BE000214B224A034493428CBF0022012205E795
:100BF0001D4B1E4A034493428CBF0022012224E76E
:100C00002049214B08698A69C96900F03F00C1F396
:100C1000031141EA002102F0F00216480A43B2F53E
:100C2000017F28BF184666E71649174B08698A698D
:100C3000C96900F03F00C1F3031141EA002102F04D
:100C4000F0020C480A43B2F5017F28BF184677E747
:100C500000800C409C05904300000C400048E801D7
:100C600000430200A4059043FFDB0BFFFF23F400C9
:100C7000B081E00F0148E8018C0590438405904362
:100C800010089043D0FF0FE001366E0110B4042825
:100C900006D8DFE800F0231B17081F00124A136272
:100CA0005DF8044B70471148022301240029F5D058
:100CB0000D4B1C62002AF3D00368002BFCD05DF8BA
:100CC000044B70470A4808230424EFE709488023AF
:100CD0004024EBE7084820231024E7E707484FF4B7
:100CE00000734FF48074E1E700800C40840590436A
:100CF0008C0590439C05904394059043A405904334
:100D0000F0B5C40052B1002B38D02518AD0005F164
:100D10008045012605F5C0458E402E612518AD00A1
:100D2000072905F1804517D805F5C0456F684FEADA
:100D3000810E0F2606FA0EF627EA060702FA0EF6CD
:100D40003E436E603AB9204403BB154B800001223C
:100D500003448A405A60F0BD01F1804605F5C04564
:100D6000083EAF68B6004FF00F0E0EFA06FE27EAF7
:100D70000E0702FA06F63E43AE60E3E72718084D79
:100D8000BF0001263D448E406E60C7E7800000F141
:100D90008040012300F5C0408B400361F0BD00BFDF
:100DA000106000400B4A5169136901F00F01C3F351
:100DB000811343EA81038370136903F03F03437097
:100DC0009169D36901F0F002C3F303131343037075
:100DD000704700BFD0FF0FE0174A70B5536A17483D
:100DE000174E0121346803605160164A184642F8D4
:100DF000243000F0CBFA0EA3D3E9002300F03CFB33
:100E0000114D632C05EBC405C5E9000141F28831A1
:100E10000E4B14BF0134002401200D4A3460986148
:100E2000136803448B4288BF0023136070BD00BF6A
:100E30006666666666664A3F0020004098000020AD
:100E400094000020C4030020A00000200000014006
:100E5000C003002010B501210A460220FFF716FF4B
:100E600011200421FFF766FD05480121FFF722FD4F
:100E7000BDE8104004210A4602200023FFF740BFCE
:100E800000D20400024A136801331360704700BFA8
:100E9000540500201B490520102218238A6500BF35
:100EA00000BF00BF00BF00BF00BF00BF00BF00BF4A
:100EB00000BF00BF00BF00BFCA6500BF00BF00BFCA
:100EC00000BF00BF00BF00BF00BF00BF00BF00BF2A
:100ED00000BF00BF00BF00BF00BF00BF00BF00BF1A
:100EE00000BF00BF00BF00BF00BF00BF00BF00BF0A
:100EF00000BF00BF00BF00BF00BF013BCED1013823
:100F0000CBD170470060004030B5FBB076494FF45C
:100F1000F07202A800F0FCFC744B01A8DC6CFFF737
:100F200041FFB4F1805F0AD39DF80430022B06D94B
:100F30006F4A136823F0500343F0100313606D48A9
:100F4000FFF7B0FB6C4BA3FB00239B09013BB3F104
:100F5000807F80F09480694A694C00200721E02559
:100F6000536084F8235090601160FFF773FF654B66
:100F70001022DA654FF42F6300BF013BFCD1FFF76D
:100F800089FF4FF42F6300BF013BFCD15D4CFFF79D
:100F900081FF4FF42F6300BF013BFCD14FF42F635F
:100FA00000BF013BFCD14FF42F6300BF013BFCD1DC
:100FB0004FF42F6300BF013BFCD14FF42F6300BF00
:100FC000013BFCD102AB7AAD102203F160002FE0AF
:100FD00000BF00BF00BF00BF00BF00BF00BF00BF19
:100FE00000BF00BF00BF00BF00BFE26500BF00BF81
:100FF00000BF00BF00BF00BF00BF00BF00BF00BFF9
:1010000000BF00BF00BF00BF00BF00BF00BF00BFE8
:1010100000BF00BF00BF00BF00BF00BF00BF00BFD8
:1010200000BF00BF00BF00BF00BF00BF984227D075
:1010300053F8041BA2650129CAD100BF00BF00BF3D
:1010400000BF00BF00BF00BF00BF00BF00BF00BFA8
:1010500000BF00BF00BF00BF00BF00BF00BF00BF98
:1010600000BF00BF00BF00BF00BF00BF00BF00BF88
:1010700000BF00BF00BF00BF00BFE265CAE7FEE7D8
:1010800085420346A1D1FFF705FF4FF42F6300BF50
:10109000013BFCD14FF42F6300BF013BFCD14FF467
:1010A0002F6300BF013BFCD14FF42F6300BF013B16
:1010B000FCD14FF42F6300BF013BFCD14FF42F63F1
:1010C00000BF013BFCD14FF42F6300BF013BFCD1BB
:1010D0004FF42F6300BF013BFCD14FF42F6300BFDF
:1010E000013BFCD153E700BF54190000B081E00F71
:1010F000C0800C4050000200D34D621010E000E0B0
:1011000000ED00E00060004081F0004102E000BF1F
:1011100083F0004330B54FEA41044FEA430594EAB7
:10112000050F08BF90EA020F1FBF54EA000C55EAF2
:10113000020C7FEA645C7FEA655C00F0E2804FEAC3
:101140005454D4EB5555B8BF6D420CDD2C4480EAA5
:10115000020281EA030382EA000083EA010180EAD5
:10116000020281EA0303362D88BF30BD11F0004F23
:101170004FEA01314FF4801C4CEA113102D0404259
:1011800061EB410113F0004F4FEA03334CEA133394
:1011900002D0524263EB430394EA050F00F0A780AC
:1011A000A4F10104D5F1200E0DDB02FA0EFC22FAA7
:1011B00005F2801841F1000103FA0EF2801843FA9B
:1011C00005F359410EE0A5F120050EF1200E012A8C
:1011D00003FA0EFC28BF4CF0020C43FA05F3C018CA
:1011E00051EBE37101F0004507D54FF0000EDCF143
:1011F000000C7EEB00006EEB0101B1F5801F1BD3EC
:10120000B1F5001F0CD349085FEA30004FEA3C0CEF
:1012100004F101044FEA445212F5800F80F09A80E5
:10122000BCF1004F08BF5FEA500C50F1000041EBE9
:10123000045141EA050130BD5FEA4C0C404141EBED
:10124000010111F4801FA4F10104E9D191F0000F14
:1012500004BF01460020B1FA81F308BF2033A3F197
:101260000B03B3F120020CDA0C3208DD02F1140C8E
:10127000C2F10C0201FA0CF021FA02F10CE002F1C9
:101280001402D8BFC2F1200C01FA02F120FA0CFCC2
:10129000DCBF41EA0C019040E41AA2BF01EB04510B
:1012A000294330BD6FEA04041F3C1CDA0C340EDC09
:1012B00004F11404C4F1200220FA04F001FA02F34C
:1012C00040EA030021FA04F345EA030130BDC4F10A
:1012D0000C04C4F1200220FA02F001FA04F340EAFF
:1012E0000300294630BD21FA04F0294630BD94F0B0
:1012F000000F83F4801306BF81F480110134013D97
:101300004EE77FEA645C18BF7FEA655C29D094EA07
:10131000050F08BF90EA020F05D054EA000C04BF85
:101320001946104630BD91EA030F1EBF0021002070
:1013300030BD5FEA545C05D14000494128BF41F00F
:10134000004130BD14F580043CBF01F5801130BD73
:1013500001F0004545F0FE4141F470014FF00000FE
:1013600030BD7FEA645C1ABF194610467FEA655CAF
:101370001CBF0B46024650EA013406BF52EA033551
:1013800091EA030F41F4002130BD00BF90F0000F3F
:1013900004BF0021704730B54FF4806404F132047B
:1013A0004FF000054FF0000150E700BF90F0000F34
:1013B00004BF0021704730B54FF4806404F132045B
:1013C00010F0004548BF40424FF000013EE700BF2B
:1013D00042004FEAE2014FEA31014FEA02701FBFBB
:1013E00012F07F4393F07F4F81F06051704792F08D
:1013F000000F14BF93F07F4F704730B54FF4607407
:1014000001F0004521F0004120E700BF50EA010251
:1014100008BF704730B54FF000050AE050EA0102FE
:1014200008BF704730B511F0004502D5404261EB6E
:1014300041014FF4806404F132045FEA915C3FF4AF
:10144000DCAE4FF003025FEADC0C18BF03325FEA48
:10145000DC0C18BF033202EBDC02C2F1200300FAFD
:1014600003FC20FA02F001FA03FE40EA0E0021FA22
:1014700002F11444C1E600BF70B54FF0FF0C4CF40C
:10148000E06C1CEA11541DBF1CEA135594EA0C0FC2
:1014900095EA0C0F00F0DEF82C4481EA030621EAFD
:1014A0004C5123EA4C5350EA013518BF52EA033538
:1014B00041F4801143F4801338D0A0FB02CE4FF0EA
:1014C0000005E1FB02E506F00042E0FB03E54FF01A
:1014D0000006E1FB03569CF0000F18BF4EF0010E12
:1014E000A4F1FF04B6F5007F64F5407404D25FEA0E
:1014F0004E0E6D4146EB060642EAC62141EA5551C1
:101500004FEAC52040EA5E504FEACE2EB4F1FD0C02
:1015100088BFBCF5E06F1ED8BEF1004F08BF5FEA80
:10152000500E50F1000041EB045170BD06F0004632
:1015300046EA010140EA020081EA0301B4EB5C04DF
:10154000C2BFD4EB0C0541EA045170BD41F48011D7
:101550004FF0000E013C00F3AB8014F1360FDEBFFC
:10156000002001F0004170BDC4F10004203C35DAD8
:101570000C341BDC04F11404C4F1200500FA05F35B
:1015800020FA04F001FA05F240EA020001F00042FC
:1015900021F0004110EBD37021FA04F642EB060172
:1015A0005EEA430E08BF20EAD37070BDC4F10C049C
:1015B000C4F1200500FA04F320FA05F001FA04F260
:1015C00040EA020001F0004110EBD37041F100014C
:1015D0005EEA430E08BF20EAD37070BDC4F1200557
:1015E00000FA05F24EEA020E20FA04F301FA05F2BF
:1015F00043EA020321FA04F001F0004121FA04F267
:1016000020EA020000EBD3705EEA430E08BF20EA36
:10161000D37070BD94F0000F0FD101F00046400070
:1016200041EB010111F4801F08BF013CF7D041EAF2
:10163000060195F0000F18BF704703F000465200F6
:1016400043EB030313F4801F08BF013DF7D043EAC7
:101650000603704794EA0C0F0CEA135518BF95EA7D
:101660000C0F0CD050EA410618BF52EA4306D1D104
:1016700081EA030101F000414FF0000070BD50EA23
:10168000410606BF1046194652EA430619D094EAAD
:101690000C0F02D150EA013613D195EA0C0F05D197
:1016A00052EA03361CBF104619460AD181EA0301EB
:1016B00001F0004141F0FE4141F470014FF00000A3
:1016C00070BD41F0FE4141F4780170BD70B54FF03E
:1016D000FF0C4CF4E06C1CEA11541DBF1CEA1355BE
:1016E00094EA0C0F95EA0C0F00F0A7F8A4EB0504A0
:1016F00081EA030E52EA03354FEA013100F0888097
:101700004FEA03334FF0805545EA131343EA12635F
:101710004FEA022245EA111545EA10654FEA002614
:101720000EF000419D4208BF964244F1FD0404F5CD
:10173000407402D25B084FEA3202B61A65EB030529
:101740005B084FEA32024FF480104FF4002CB6EBE6
:10175000020E75EB030E22BFB61A754640EA0C0066
:101760005B084FEA3202B6EB020E75EB030E22BFA6
:10177000B61A754640EA5C005B084FEA3202B6EBE7
:10178000020E75EB030E22BFB61A754640EA9C00A6
:101790005B084FEA3202B6EB020E75EB030E22BF76
:1017A000B61A754640EADC0055EA060E18D04FEA34
:1017B000051545EA16754FEA06164FEAC30343EAD4
:1017C00052734FEAC2025FEA1C1CC0D111F4801FA1
:1017D0000BD141EA00014FF000004FF0004CB6E79A
:1017E00011F4801F04BF01430020B4F1FD0C88BF39
:1017F000BCF5E06F3FF6AFAEB5EB030C04BFB6EB44
:10180000020C5FEA500C50F1000041EB045170BD36
:101810000EF0004E4EEA113114EB5C04C2BFD4EB63
:101820000C0541EA045170BD41F480114FF0000EE7
:10183000013C90E645EA060E8DE60CEA135594EA63
:101840000C0F08BF95EA0C0F3FF43BAF94EA0C0F66
:101850000AD150EA01347FF434AF95EA0C0F7FF4DB
:1018600025AF104619462CE795EA0C0F06D152EA2F
:1018700003353FF4FDAE1046194622E750EA410613
:1018800018BF52EA43067FF4C5AE50EA41047FF424
:101890000DAF52EA43057FF4EBAE12E708B5074BF4
:1018A000044613B10021AFF30080054B1868836A2A
:1018B00003B19847204600F03FF800BF0000000049
:1018C000381B00000E4B70B51E460E4C0025E41A66
:1018D000A410A54204D056F8253098470135F8E702
:1018E00000F02CF8084B094C1E46E41AA410002501
:1018F000A54204D056F8253098470135F8E770BD69
:101900006C0000206C0000206C00002070000020A3
:1019100010B5431E0A44914204D011F8014B03F85C
:10192000014FF8E710BD03460244934202D003F88A
:10193000011BFAE770470000FEE700BFF8B500BFE3
:10194000F8BC08BC9E467047F8B500BFF8BC08BCA0
:101950009E467047010000000100000001000000E9
:101960000100000001000000010000000100000073
:101970000100000000000000000000000000000066
:101980000000000000000000000000000000000057
:101990000000000000000000000000000000000047
:1019A0000000000000000000000000000000000037
:1019B0000000000001000000010000000100000024
:1019C0000100000001000000010000000100000013
:1019D0000100000000000000000000000000000006
:1019E00000000000000000000000000000000000F7
:1019F00000000000000000000000000000000000E7
:101A000000000000000000000000000000000000D6
:101A100000000000010000000100000001000000C3
:101A200001000000010000000100000001000000B2
:101A300001000000000000000000000000000000A5
:101A40000000000000000000000000000000000096
:101A50000000000000000000000000000000000086
:101A60000000000000000000000000000000000076
:101A70000000000001000000010000000100000063
:101A80000100000001000000010000000100000052
:101A90000100000000000000000000000000000045
:101AA0000000000000000000000000000000000036
:101AB0000000000000000000000000000000000026
:101AC0000000000000000000000000000000000016
:101AD0000000000001000000010000000100000003
:101AE00001000000010000000100000001000000F2
:101AF00001000000000000000000000000000000E5
:101B000000000000000000000000000000000000D5
:101B100000000000000000000000000000000000C5
:101B200000000000000000000000000000000000B5
:101B300000000000430000000C0000200000000036
:081B4000F8E5FF7F0100000041
:101B480000800000006CDC02809FD50000000000CF
:101B5800000000000000000000000000000000007D
:101B6800000000000000000000000000341B00001E
:101B7800000000000000000000000000000000005D
:101B8800000000000000000000000000000000004D
:101B9800000000000000000000000000000000003D
:101BA800000000000000000000000000010100002B
:081BB800DD0000000000000048
:04000003000001AD4B
:00000001FF
